:020000040000FA
:100000000C945D000C941D070C94F6060C9485006E
:100010000C9485000C9485000C9485000C9485004C
:100020000C9485000C9485000C9485000C9485003C
:100030000C949C070C9485000C9485000C9485000E
:100040000C94AC060C9485000C946A070C9444073D
:100050000C9485000C9485000C9485000C9485000C
:100060000C9485000C9485000000000024002700FB
:100070002A0000000000250028002B0004040404CE
:100080000404040402020202020203030303030342
:10009000010204081020408001020408102001021F
:1000A00004081020000000080002010000030407FB
:1000B0000000000000000000C90711241FBECFEFA0
:1000C000D8E0DEBFCDBF12E0A0E0B1E0E8EFFDE197
:1000D00002C005900D92A632B107D9F723E0A6E23F
:1000E000B2E001C01D92A534B207E1F710E0CDE502
:1000F000D0E004C02197FE010E94F40ECC35D10758
:10010000C9F70E944F080C94FA0E0C94000090E07E
:10011000FC01EC55FF4F2491FC01E057FF4F349157
:10012000FC01E458FF4FE491EE23C9F0222339F09B
:10013000233001F1A8F4213019F1223029F1F0E047
:10014000EE0FFF1FEE58FF4FA591B4918FB7F894B3
:10015000EC91611126C030953E233C938FBF0895EA
:100160002730A9F02830C9F0243049F78091800069
:100170008F7D03C0809180008F7780938000DFCFD8
:1001800084B58F7784BDDBCF84B58F7DFBCF809125
:10019000B0008F778093B000D2CF8091B0008F7D78
:1001A000F9CF3E2BDACFCF93DF9390E0FC01E057FD
:1001B000FF4F249184589F4FFC0184918823D1F0F4
:1001C00090E0880F991FFC01E859FF4FA591B49169
:1001D000FC01EE58FF4FC591D49161110EC09FB73D
:1001E000F8948C91E22FE0958E238C932881E22362
:1001F000E8839FBFDF91CF9108958FB7F894EC917A
:10020000E22BEC938FBFF6CF8E50806480937C00FE
:1002100080917A00806480937A0080917A0086FDD4
:10022000FCCF809178009091790008953FB7F894C1
:100230008091580290915902A0915A02B0915B02AC
:1002400026B5A89B05C02F3F19F00196A11DB11D31
:100250003FBFBA2FA92F982F8827BC01CD01620F6D
:10026000711D811D911D42E0660F771F881F991F28
:100270004A95D1F708952FB7F89460915402709180
:10028000550280915602909157022FBF089508950C
:10029000AF92BF92CF92DF92EF92FF920F931F9394
:1002A000CF93DF936C017B018B01040F151FEB01D2
:1002B0005E01AE18BF08C017D10759F06991D60189
:1002C000ED91FC910190F081E02DC6010995892BFB
:1002D00079F7C501DF91CF911F910F91FF90EF90BA
:1002E000DF90CF90BF90AF900895FC01538D448D67
:1002F000252F30E0842F90E0821B930B541710F0D1
:10030000CF96089501970895FC01918D828D9817DD
:1003100061F0A28DAE0FBF2FB11D5D968C91928DB5
:100320009F5F9F73928F90E008958FEF9FEF0895E6
:10033000FC01918D828D981731F0828DE80FF11DAF
:10034000858D90E008958FEF9FEF08950F931F9391
:100350000E943B016093700270937102809372025D
:100360009093730288E692E00E94980197FF1DC067
:100370000E943B0100917002109171022091720263
:1003800030917302601B710B820B930B00916C0216
:1003900010916D0220916E0230916F02601771070B
:1003A00082079307F8F28FEF9FEF1F910F91089547
:1003B000FC01918D228D892F90E0805C9F4F821BE4
:1003C00091098F739927089588E692E00E94D801D9
:1003D00021E0892B09F420E0822F089580E090E04D
:1003E000892B29F00E94E40181110C9400000895EA
:1003F000FC01A48DA80FB92FB11DA35ABF4F2C919A
:10040000848D90E001968F739927848FA689B78990
:100410002C93A089B1898C91837080648C93938D87
:10042000848D981306C00288F389E02D80818F7D2A
:1004300080830895EF92FF920F931F93CF93DF93E2
:10044000EC0181E0888F9B8D8C8D98131AC0E88910
:10045000F989808185FF15C09FB7F894EE89FF89DF
:100460006083E889F98980818370806480839FBF7D
:1004700081E090E0DF91CF911F910F91FF90EF907D
:100480000895F62E0B8D10E00F5F1F4F0F7311278D
:10049000E02E8C8D8E110CC00FB607FCFACFE889C8
:1004A000F989808185FFF5CFCE010E94F801F1CF57
:1004B000EB8DEC0FFD2FF11DE35AFF4FF0829FB73C
:1004C000F8940B8FEA89FB8980818062CFCFCF932C
:1004D000DF93EC01888D8823B9F0AA89BB89E8896C
:1004E000F9898C9185FD03C0808186FD0DC00FB612
:1004F00007FCF7CF8C9185FFF2CF808185FFEDCF90
:10050000CE010E94F801E9CFDF91CF9108950F93BA
:100510001F938FE00E940401853F914054F00E9498
:100520003B0160932D0270932E0280932F029093D3
:1005300030020E943B0100912D0210912E02209169
:100540002F0230913002601B710B820B930B21E064
:10055000693E73408105910508F020E0822F1F91CC
:100560000F910895CF92DF92EF92FF92CF93DF9396
:1005700082E10E940401EC016091430270E090E08E
:1005800080E00E94810C6B017C01BE01DD0F880BB5
:10059000990B0E94810C23EC35E746E753E40E9457
:1005A000DA0D2DE930E846EF50E40E94470E9B013A
:1005B000AC01C701B6010E94EF0E61E018160CF005
:1005C00060E088E0DF91CF91FF90EF90DF90CF90D7
:1005D0000C94870060E080E10E94870060E081E188
:1005E0000C9487000F931F93CF9360E084E00E94E8
:1005F00087008091290290912A02A0912B02B0914C
:100600002C020091260210912702012E000C220BD1
:10061000330B081719072A073B0709F484C0909386
:10062000270280932602092E000CAA0BBB0B009711
:10063000A105B10509F443C0813020E49207A1056A
:10064000B10520F080E090E4A0E0B0E0BC01CD0175
:1006500024E0660F771F881F991F2A95D1F76F3FF7
:1006600071058105910509F008F453C0611548E052
:1006700074078105910508F450C0611520E27207E6
:100680008105910508F120E430E0C4E0611540E403
:10069000740781059105D8F0611520E8720781057E
:1006A000910598F120E034E0C7E06115710541E063
:1006B0008407910560F420E031E0C6E008C081E0E5
:1006C00090E0A0E0B0E0C2CF20E230E0C3E06115EE
:1006D000710544E08407910521F150E040E00E945B
:1006E000A90D8091B000807F82608093B000C0939C
:1006F000B10021502093B3008091B10087708093A6
:100700003102CF911F910F91089520E830E0C5E0AC
:10071000DECFC1E021E030E0E0CFC2E028E030E011
:10072000DCCF20E0DECF8091B100887F9091310254
:10073000892B8093B1001092B200E3CF0F931F93E7
:100740009091390380913A03891778F180913903A8
:1007500081110AC00E94160160933503709336031D
:1007600080933703909338039091390380913A0333
:10077000981316C00E94160100913503109136039C
:100780002091370330913803601B710B820B930B60
:100790006093350370933603809337039093380347
:1007A000809139038F5F809339031F910F910895D2
:1007B000CF93DF93FC0101900020E9F73197AF015F
:1007C000481B590BBC0188E692E00E944801EC01ED
:1007D00042E050E06FE671E088E692E00E94480156
:1007E0008C0F9D1FDF91CF9108954F925F926F9272
:1007F0007F928F929F92AF92BF92CF92DF92EF92B1
:10080000FF920F931F93CF93DF9300D000D01F92DE
:10081000CDB7DEB72AE8289FB001299F700D1124BB
:10082000072E000C880B990B0E94810C6093050326
:1008300070930603809307039093080382E791E087
:100840000E94D8039091390380913A03891718F5D3
:100850000E943B0160933B0370933C0380933D03F4
:1008600090933E0360913503709136038091370376
:100870009091380320913A0330E050E040E00E942C
:10088000A90D20933F0330934003409341035093BD
:100890004203109239030E943B0100913B031091E7
:1008A0003C0320913D0330913E03AB01BC01401B52
:1008B000510B620B730B8091430390914403B0E0A2
:1008C000A0E0481759076A077B0708F09CC12091F0
:1008D0003F03309140034091410350914203211561
:1008E00031054105510509F48EC160E077E883E9DF
:1008F00093E00E94A90DCA01B9010E947F0C609388
:10090000090370930A0380930B0390930C030E94D6
:100910003B01009131031091320320913303309158
:100920003403AB01BC01401B510B620B730B809174
:10093000210390912203092E000CAA0BBB0B481730
:1009400059076A077B0708F430C10E943B01609396
:1009500031037093320380933303909334034090B8
:10096000090350900A0360900B0370900C03A301DD
:1009700092016091050370910603809107039091A5
:1009800008030E94DA0D4B015C01A3019201609102
:100990002D0370912E0380912F03909130030E94BC
:1009A000DA0D6B017C0140922D0350922E03609270
:1009B0002F037092300380912803882341F0B7FA07
:1009C000B094B7F8B094F7FAF094F7F8F0948091F7
:1009D00027038D83412C512C320181110EC02091AF
:1009E0001103309112034091130350911403C50178
:1009F000B4010E94E00C2B013C01809123039091F3
:100A00002403A0912503B091260389839A83AB83A5
:100A1000BC832091190330911A0340911B0350911C
:100A20001C03C701B6010E94E00C29813A814B8169
:100A30005C810E94470EA30192010E94DB0D2B01F5
:100A40003C012091150330911603409117035091FA
:100A50001803C501B4010E94E00C29813A814B8141
:100A60005C810E94E00C20911D0330911E03409197
:100A70001F03509120030E94DB0D4B015C0180920B
:100A80001D0390921E03A0921F03B09220039D812C
:100A90009923C1F020911103309112034091130367
:100AA00050911403C701B6010E94E00CA501940106
:100AB0000E94DB0D60931D0370931E0380931F0340
:100AC0009093200300911D0310911E03A0911F031A
:100AD000AD83B0912003B9836091290370912A03FB
:100AE000072E000C880B990B0E94810C6B017C0176
:100AF0009B01AC01B8018D8199810E947A0C46015D
:100B0000570187FD18C060912B0370912C03072EAD
:100B1000000C880B990B0E94810C4B015C019B011E
:100B2000AC01B8018D8199810E94EF0E18161CF05E
:100B30004801AD80B980C401D50180931D03909315
:100B40001E03A0931F03B09320039401A501C301CA
:100B5000B2010E94DB0D4B015C019B01AC01B601AF
:100B6000C7010E94EF0E1816B4F060912B0370912C
:100B70002C03072E000C880B990B0E94810C6B0133
:100B80007C019B01AC01B401C5010E94EF0E181657
:100B900014F064017501C601D70180930D03909391
:100BA0000E03A0930F03B093100320910D03309117
:100BB0000E0340910F035091100360E070E784E151
:100BC00096E40E94DA0D0E94C00E60932902709391
:100BD0002A0280932B0290932C020F900F900F907B
:100BE0000F900F90DF91CF911F910F91FF90EF9099
:100BF000DF90CF90BF90AF909F908F907F906F903D
:100C00005F904F90089520E030E0A90174CECF931B
:100C1000C0912802CC2389F060E080E10E94870027
:100C200061E081E10E94870081E0C827C09328022B
:100C30008CE791E0CF910C94D80361E080E10E94B1
:100C4000870060E0EECF8F929F92AF92BF92CF92DB
:100C5000DF92EF92FF926B017C0180916002811123
:100C60000DC00E943B0160935C0270935D02809313
:100C70005E0290935F0281E0809360020E943B01DC
:100C800080905C0290905D02A0905E02B0905F0246
:100C9000681579058A059B0560F48CE390E0FF9068
:100CA000EF90DF90CF90BF90AF909F908F900C947B
:100CB000F5030E943B0186169706A806B90698F52B
:100CC00090E080E00E94F5030E94EA020E943B014E
:100CD000AB01BC0180915C0290915D02A0915E022B
:100CE000B0915F02805F984DAF4FBF4F841795075B
:100CF000A607B707C0F40E943B01C60ED71EE81E28
:100D0000F91EC0925C02D0925D02E0925E02F09207
:100D10005F02FF90EF90DF90CF90BF90AF909F90D9
:100D20008F900C940706FF90EF90DF90CF90BF90CC
:100D3000AF909F908F90089561E089E00E948700B6
:100D400087E891E00C94D80360E089E00E94870076
:100D500081E991E00C94D8031F920F920FB60F9285
:100D600011242F933F938F939F93AF93BF938091C1
:100D7000540290915502A0915602B09157023091C1
:100D8000530223E0230F2D3758F50196A11DB11D05
:100D9000209353028093540290935502A0935602DD
:100DA000B09357028091580290915902A0915A0233
:100DB000B0915B020196A11DB11D809358029093E2
:100DC0005902A0935A02B0935B02BF91AF919F91D9
:100DD0008F913F912F910F900FBE0F901F901895FC
:100DE00026E8230F0296A11DB11DD2CF1F920F92AC
:100DF0000FB60F9211242F933F934F935F936F93EE
:100E00007F938F939F93AF93BF93EF93FF93E09163
:100E10000201F09103010995FF91EF91BF91AF910C
:100E20009F918F917F916F915F914F913F912F9102
:100E30000F900FBE0F901F9018951F920F920FB634
:100E40000F9211242F933F934F935F936F937F9350
:100E50008F939F93AF93BF93EF93FF93E091000124
:100E6000F09101010995FF91EF91BF91AF919F9191
:100E70008F917F916F915F914F913F912F910F9043
:100E80000FBE0F901F9018951F920F920FB60F92E2
:100E900011242F933F934F935F936F937F938F937F
:100EA0009F93AF93BF93EF93FF9388E692E00E94E6
:100EB000F801FF91EF91BF91AF919F918F917F9139
:100EC0006F915F914F913F912F910F900FBE0F90B7
:100ED0001F9018951F920F920FB60F9211242F9307
:100EE0008F939F93EF93FF93E0917802F0917902B3
:100EF0008081E0917E02F0917F0282FD1BC0908193
:100F0000809181028F5F8F7320918202821741F05E
:100F1000E0918102F0E0E859FD4F958F80938102C6
:100F2000FF91EF919F918F912F910F900FBE0F9096
:100F30001F9018958081F4CF1F920F920FB60F92D9
:100F400011242F933F934F935F936F937F938F93CE
:100F50009F93AF93BF93EF93FF9361E084E00E9470
:100F60008700E1EBF0E08081887F80831092B200FF
:100F7000FF91EF91BF91AF919F918F917F916F9171
:100F80005F914F913F912F910F900FBE0F901F9047
:100F90001895CF93DF93E8E6F2E01382128288EE91
:100FA00093E0A0E0B0E084839583A683B78381E6D5
:100FB00091E09183808385EC90E09587848784EC31
:100FC00090E09787868780EC90E0918B808B81EC16
:100FD00090E0938B828B82EC90E0958B848B86ECF7
:100FE00090E0978B868B118E128E138E148EC5E334
:100FF000D3E01C828AE08D830E943B016E837F8355
:10100000888799871A861B861C861D8688EE93E042
:101010009F878E87E5E0F3E01082118212821382AF
:101020001482158216821782108611861286138604
:10103000108E118E128E138E84E690E0958F848F21
:101040008DEC9CECACECBDE3868F978FA0A3B1A395
:1010500012A213A215A214A22FEF30E037A326A3E9
:1010600010A611A612A613A614A615A616A617A6B4
:101070004AE959E969E17EE34487558766877787BE
:10108000808B918BA28BB38B8FE692E1A3E8BBE3BD
:10109000848B958BA68BB78BDF91CF910895789435
:1010A00084B5826084BD84B5816084BD85B582606D
:1010B00085BD85B5816085BD80916E00816080931E
:1010C0006E00109281008091810082608093810087
:1010D0008091810081608093810080918000816097
:1010E000809380008091B10084608093B1008091F2
:1010F000B00081608093B00080917A00846080931A
:101100007A0080917A00826080937A0080917A00E0
:10111000816080937A0080917A00806880937A0061
:101120001092C100E0917802F091790282E0808310
:10113000E0917402F09175021082E0917602F091D4
:10114000770287E6808310928002E0917C02F09122
:101150007D0286E08083E0917A02F0917B028081BB
:1011600080618083E0917A02F0917B0280818860C7
:101170008083E0917A02F0917B0280818068808395
:10118000E0917A02F0917B0280818F7D80838EE9ED
:1011900093E0909303018093020180916900837F23
:1011A000886080936900E99A60E083E00E94D30040
:1011B00082E380933A031092390382EF92E0909396
:1011C000010180930001809169008C7F8160809390
:1011D0006900E89A60E082E00E94D30061E084E068
:1011E0000E94D30061E080E10E94D30061E081E1D0
:1011F0000E94D3000E94EA021092280384E690E045
:1012000090932A03809329038CE195E290932C0319
:1012100080932B038091700082608093700060E067
:1012200082E10E94D30061E088E00E94D30060E088
:1012300088E00E94870061E085E00E94D30061E0C1
:1012400086E00E94D30061E087E00E94D30060E066
:101250008FE00E94D30061E085E00E94870061E09A
:1012600086E00E94870060E087E00E94870061E0DE
:1012700089E00E94D30060E08EE00E94D3000E94CB
:101280009C068CE991E00E94D80320E6622E2AEEAB
:10129000722E30E0432E30E0532EC1E088E692E01B
:1012A0000E94D80102970CF411C188E692E00E94D6
:1012B0008401D82F0E94A601FC0197FD92C08D32B7
:1012C000910509F04CC0812C912C90E8A92E9FE348
:1012D000B92EC12CD12C760110E000E0E130F105EF
:1012E00059F1ED32F10509F447C0EE32F10509F488
:1012F00045C0CF01C0970A97F8F4AAE0B0E0A70173
:1013000096010E949E0D6F01FF0FEE08FF08C60EAA
:10131000D71EE81EF91E20E3C21AD108E108F10821
:10132000112351F02DEC3CEC4CEC5DE3C501B40114
:101330000E94E00C4B015C0188E692E00E9484016F
:101340000E94A601FC01C0970A9740F2EE32F10517
:10135000B9F4112319F2102F011118C025C0C0973C
:101360000A9708F4B0CFEE32F10509F4ACCF88E665
:1013700092E00E9484019ECF01E0DECF11E0DCCF3D
:10138000E130F10509F4AACF002341F0F094E09494
:10139000D094C094C11CD11CE11CF11CC701B60142
:1013A0000E94810C112341F0C701B6010E94810CFB
:1013B000A50194010E94E00C0E94B90E6B018B0103
:1013C000D337B9F194F4D33609F42BC1D43609F4E8
:1013D00019C1D23609F07AC0109244028AEB91E02A
:1013E00073C060E070E0CB01E7CFD73709F412C1DA
:1013F000DA3709F4F3C0D63709F068C081ED91E01F
:101400000E94D8030E943B016B017C010E943B01BA
:101410006C197D098E099F09603375478105910517
:1014200008F054C060E177E280E090E00E9423067B
:10143000EDCF86EA91E00E94D803C0934602DD24F6
:10144000F60183E0EE0FFF1F8A95E1F7E35FFE4FA1
:1014500084819581869D6001879DD00C969DD00CDE
:101460001124F12CE12C22814081518150933902C9
:101470004093380220933A02C0920401D0920501B1
:10148000E0920601F092070190934102809340029E
:10149000C0934202C0933F02C093370210923602BB
:1014A0000E943B01C60ED71EE81EF91EC0923B02E9
:1014B000D0923C02E0923D02F0923E020E94A406CD
:1014C000C09344028FEA91E00E94D80380914B02BE
:1014D00081110CC00E943B01609347027093480247
:1014E0008093490290934A02C0934B020E943B01B1
:1014F00000914702109148022091490230914A021E
:10150000601B710B820B930B65367105810591058C
:1015100008F450C080914602882309F441C08EE04F
:101520000E940401853F914054F00E943B0160936A
:1015300032027093330280933402909335020E94FA
:101540003B0120914402C0903202D0903302E090DF
:101550003402F09035026C197D098E099F09693EAD
:1015600073408105910508F05FC0222309F45EC035
:1015700080910C01811102C0C0930C018091420244
:10158000882309F4B7C080913F02811192C00E9464
:101590008702882309F486C061E087E00E94870003
:1015A0000E943B0160934702709348028093490276
:1015B00090934A0280914502882321F084E690E0CE
:1015C0000E94F5034114510409F468CE0E94E4011D
:1015D000882309F463CE0E94000060CE84EC91E081
:1015E0000E94D803D1E0CD2809F4D0E0012B39F0D6
:1015F0000E94A4066D2F87E00E94870067CF0E949B
:101600009C06F8CF672B19F00E94A4065FCF0E94BA
:101610009C065CCF81E0CD2809F480E080934502F0
:1016200055CF0E94070652CF211158C10E94B20225
:101630001092430290E080E00E94F5030E94EA02CB
:101640000E9487028111A8CF60E087E00E94870096
:1016500082E10E940401BC01990F880B990B0E9442
:10166000810C23EC35E746E753E40E94DA0D2DE9BF
:1016700030E846EF50E40E94470E20E030E040E2C0
:1016800052E40E947A0C87FF8BCF0E949C068CE16B
:1016900092E00E94D80380910C01811181CFC09308
:1016A0000C017ECF60E087E00E948700109242022A
:1016B00077CF0E948702811110C0D09136026091CD
:1016C000370285E00E9487006D2F86E00E94870028
:1016D0008CED91E00E94D80363CF60E085E00E942A
:1016E000870060E086E00E9487008CED91E00E9418
:1016F000D803DCCF8091400290914102892B09F4FC
:10170000D4C00E948702882361F10E94B2028091B6
:101710003802809343020E943B01C0903B02D0906C
:101720003C02E0903D02F0903E026C157D058E0576
:101730009F05D0F480910B018823B1F060E177E23E
:1017400080E090E00E94230680910A01882331F016
:1017500085EE91E00E94D80310920A0184E092E0A5
:10176000B9CF10924302D7CFC0930A0180910901EB
:10177000882309F190E080E00E94F5030E94EA02CC
:10178000C093420210923F021092090110920B0185
:101790000E943B0160527C468B4F9F4F60933B02FF
:1017A00070933C0280933D0290933E028FEE91E055
:1017B0000E94D803D3CF809108018823C9F10E94E9
:1017C0003B016C157D058E059F0538F460E375E7D8
:1017D00080E090E00E942306C1CF8091400290916A
:1017E000410282309105E1F083309105E1F00197EB
:1017F00021F4C0933702C09336020E943B0160522D
:101800007C468B4F9F4F60933B0270933C028093CA
:101810003D0290933E021092080186EF91E0C8CFFE
:1018200010923702E8CFC093370210923602E5CF0C
:101830000E943B0120EEC20E23E9D21E24E0E21EEC
:10184000F11C6C157D058E059F0528F460E67AEE87
:1018500080E090E0BFCFC0930B01C0930901C0931B
:1018600008018091400290914102019790934102BA
:10187000809340020E943B010091040110910501F8
:101880002091060130910701DC01CB01800F911FEF
:10189000A21FB31F80933B0290933C02A0933D0292
:1018A000B0933E028DEF91E083CF90E080E00E9404
:1018B000F5030E94EA02C093420210923F020E9486
:1018C0003B016054784D864F9F4F60933B0270936D
:1018D0003C0280933D0290933E0262CE80910C01C7
:1018E000882309F45DCE8DE092E00E94D803109227
:1018F0000C0156CE0E94BC0C08F481E00895E894D7
:1019000009C097FB3EF490958095709561957F4F47
:101910008F4F9F4F9923A9F0F92F96E9BB279395F5
:10192000F695879577956795B795F111F8CFFAF405
:10193000BB0F11F460FF1BC06F5F7F4F8F4F9F4F36
:1019400016C0882311F096E911C0772321F09EE894
:10195000872F762F05C0662371F096E8862F70E0FA
:1019600060E02AF09A95660F771F881FDAF7880FD4
:101970009695879597F90895990F0008550FAA0B2A
:10198000E0E8FEEF16161706E807F907C0F0121692
:101990001306E407F50798F0621B730B840B950B95
:1019A00039F40A2661F0232B242B252B21F40895EA
:1019B0000A2609F4A140A6958FEF811D811D089587
:1019C0000E94F30C0C94640D0E94560D38F00E9496
:1019D0005D0D20F0952311F00C944D0D0C94530DDA
:1019E00011240C94980D0E94750D70F3959FC1F30E
:1019F000950F50E0551F629FF001729FBB27F00DBD
:101A0000B11D639FAA27F00DB11DAA1F649F662711
:101A1000B00DA11D661F829F2227B00DA11D621F60
:101A2000739FB00DA11D621F839FA00D611D221F1A
:101A3000749F3327A00D611D231F849F600D211DFE
:101A4000822F762F6A2F11249F5750409AF0F1F081
:101A500088234AF0EE0FFF1FBB1F661F771F881FEA
:101A600091505040A9F79E3F510580F00C944D0DC8
:101A70000C94980D5F3FE4F3983ED4F386957795E8
:101A80006795B795F795E7959F5FC1F7FE2B880F90
:101A9000911D9695879597F9089597F99F6780E826
:101AA00070E060E008959FEF80EC089500240A94B0
:101AB0001616170618060906089500240A94121629
:101AC0001306140605060895092E0394000C11F45C
:101AD000882352F0BB0F40F4BF2B11F460FF04C009
:101AE0006F5F7F4F8F4F9F4F089557FD9058440F62
:101AF000551F59F05F3F71F04795880F97FB991F6D
:101B000061F09F3F79F08795089512161306140629
:101B1000551FF2CF4695F1DF08C0161617061806B6
:101B2000991FF1CF86957105610508940895E89491
:101B3000BB2766277727CB0197F908950E94CB0D25
:101B4000A59F900DB49F900DA49F800D911D112411
:101B50000895A1E21A2EAA1BBB1BFD010DC0AA1FEE
:101B6000BB1FEE1FFF1FA217B307E407F50720F006
:101B7000A21BB30BE40BF50B661F771F881F991F81
:101B80001A9469F760957095809590959B01AC01CA
:101B9000BD01CF010895A29FB001B39FC001A39FD3
:101BA000700D811D1124911DB29F700D811D112496
:101BB000911D08955058BB27AA270E94F20D0C943E
:101BC000640D0E94560D38F00E945D0D20F039F42E
:101BD0009F3F19F426F40C94530D0EF4E095E7FBA7
:101BE0000C944D0DE92F0E94750D58F3BA1762073A
:101BF00073078407950720F079F4A6F50C94970DE8
:101C00000EF4E0950B2EBA2FA02D0B01B901900117
:101C10000C01CA01A0011124FF27591B99F0593F5B
:101C200050F4503E68F11A16F040A22F232F342FA3
:101C30004427585FF3CF469537952795A795F040F1
:101C40005395C9F77EF41F16BA0B620B730B840B06
:101C5000BAF09150A1F0FF0FBB1F661F771F881FBE
:101C6000C2F70EC0BA0F621F731F841F48F4879516
:101C700077956795B795F7959E3F08F0B0CF939508
:101C8000880F08F09927EE0F9795879508950E9481
:101C90005B0E0C94640D0E945D0D58F00E94560D71
:101CA00040F029F45F3F29F00C944D0D51110C9434
:101CB000980D0C94530D0E94750D68F39923B1F3A0
:101CC000552391F3951B550BBB27AA276217730762
:101CD000840738F09F5F5F4F220F331F441FAA1FF6
:101CE000A9F335D00E2E3AF0E0E832D091505040B2
:101CF000E695001CCAF72BD0FE2F29D0660F771F60
:101D0000881FBB1F261737074807AB07B0E809F045
:101D1000BB0B802DBF01FF2793585F4F3AF09E3FCA
:101D2000510578F00C944D0D0C94980D5F3FE4F341
:101D3000983ED4F3869577956795B795F7959F5F0D
:101D4000C9F7880F911D9695879597F90895E1E059
:101D5000660F771F881FBB1F621773078407BA07B8
:101D600020F0621B730B840BBA0BEE1F88F7E09513
:101D700008950E94C00E6894B1110C94980D0895B6
:101D80000E947D0D88F09F5798F0B92F9927B75181
:101D9000B0F0E1F0660F771F881F991F1AF0BA950F
:101DA000C9F714C0B13091F00E94970DB1E00895C9
:101DB0000C94970D672F782F8827B85F39F0B93FBB
:101DC000CCF3869577956795B395D9F73EF49095C2
:101DD0008095709561957F4F8F4F9F4F08950E941A
:101DE000BC0C08F48FEF0895EE0FFF1F0590F491DF
:101DF000E02D0994F894FFCF47014701A0BB0D00E7
:101E0000010101010128005802140001001400FA28
:101E1000001E0001001E009001140002002800F4C2
:101E20000114000100280058021400030023005E82
:101E3000010F00020028005802140003004B00EEBE
:101E400002140003004B00EE021E0002003200FAF2
:101E5000000A000100000000001A02480175016735
:101E600002D801840198010D0A004765745F737000
:101E7000656564006368616E67652064697200442B
:101E80004F4F525F4F50454E00444F4F525F434CAF
:101E90004F534500656E645F7365747570007374AD
:101EA0006172742E2E2E0053544152545F57415389
:101EB000480053544F505F57415348006F7574208A
:101EC00077617465722E2E2E00746573745F737063
:101ED00065656400646F207761746572006D6F746E
:101EE0006F725F72756E00495445525F31004954FC
:101EF00045525F3200495445525F33006974657240
:101F00005F656E6400636C6F73655F646F6F725FB3
:0E1F1000706C7A00454E445F57415348000004
:107800000C94343C0C94513C0C94513C0C94513CE1
:107810000C94513C0C94513C0C94513C0C94513CB4
:107820000C94513C0C94513C0C94513C0C94513CA4
:107830000C94513C0C94513C0C94513C0C94513C94
:107840000C94513C0C94513C0C94513C0C94513C84
:107850000C94513C0C94513C0C94513C0C94513C74
:107860000C94513C0C94513C11241FBECFEFD8E036
:10787000DEBFCDBF11E0A0E0B1E0ECE9FFE702C060
:1078800005900D92A230B107D9F712E0A2E0B1E065
:1078900001C01D92AD30B107E1F70E942D3D0C945F
:1078A000CC3F0C94003C982F959595959595959582
:1078B000905D8F708A307CF0282F295A8091C0000B
:1078C00085FFFCCF9093C6008091C00085FFFCCF60
:1078D0002093C6000895282F205DF0CF982F809127
:1078E000C00085FFFCCF9093C6000895EF92FF92F1
:1078F0000F931F93EE24FF2487018091C00087FD22
:1079000017C00894E11CF11C011D111D81E4E8164B
:1079100082E4F8068FE0080780E0180770F3E09132
:107920000401F091050109958091C00087FFE9CF1E
:107930008091C6001F910F91FF90EF9008950E94D3
:10794000763C982F8091C00085FFFCCF9093C600B5
:1079500091362CF490330CF09053892F089597555D
:10796000892F08951F930E949F3C182F0E949F3CCF
:107970001295107F810F1F9108951F93182F882350
:1079800021F00E94763C1150E1F71F9108951F935A
:10799000182F0E94763C803249F0809103018F5F5E
:1079A000809303018530C1F01F9108958091C0003C
:1079B00085FFFCCF84E18093C6008091C00085FFE5
:1079C000FCCF1093C6008091C00085FFFCCF80E102
:1079D0008093C6001F910895E0910401F091050184
:1079E00009951F9108950E94763C803241F0809164
:1079F00003018F5F80930301853081F008958091AA
:107A0000C00085FFFCCF84E18093C6008091C00058
:107A100085FFFCCF80E18093C6000895E0910401CA
:107A2000F09105010995089540E951E08823A1F0FE
:107A30002D9A28EE33E0FA013197F1F721503040CA
:107A4000D1F72D9828EE33E0FA013197F1F7215064
:107A50003040D1F7815061F708953F924F925F9285
:107A60006F927F928F929F92AF92BF92CF92DF924E
:107A7000EF92FF920F931F93CF93DF93000080E16B
:107A80008093C4001092C50088E18093C10086E015
:107A90008093C2005098589A259A81E00E94143D24
:107AA00024E1F22E9EE1E92E85E9D82E0FE0C02ECA
:107AB00010E1B12EAA24A394B1E49B2EA6E58A2E50
:107AC000F2E57F2EE0E26E2E79E4572E63E5462E36
:107AD00050E5352E0E94763C8033B1F18133B9F107
:107AE000803409F46FC0813409F476C0823409F41B
:107AF00085C0853409F488C0803531F1823521F1A3
:107B0000813511F1853509F485C0863509F48DC0BC
:107B1000843609F496C0843709F403C1853709F423
:107B200072C1863709F466C0809103018F5F80932C
:107B30000301853079F6E0910401F0910501099582
:107B40000E94763C803351F60E94F33CC3CF0E94E2
:107B5000763C803249F78091C00085FFFCCFF092DF
:107B6000C6008091C00085FFFCCF9092C600809136
:107B7000C00085FFFCCF8092C6008091C00085FFC9
:107B8000FCCF7092C6008091C00085FFFCCF609250
:107B9000C6008091C00085FFFCCF5092C600809146
:107BA000C00085FFFCCF4092C6008091C00085FFD9
:107BB000FCCF3092C6008091C00085FFFCCFB09210
:107BC000C60088CF0E94763C863808F4BDCF0E945C
:107BD000763C0E94F33C7ECF0E94763C803809F4CC
:107BE0009CC0813809F40BC1823809F43CC1883942
:107BF00009F48FC080E00E94C73C6CCF84E10E94F2
:107C0000BD3C0E94F33C66CF85E00E94BD3C0E94D3
:107C1000F33C60CF0E94763C809306010E94763C44
:107C2000809307010E94F33C55CF0E94763C80333D
:107C300009F41DC183E00E94BD3C80E00E94C73C66
:107C400049CF0E94763C809309020E94763C809343
:107C5000080280910C028E7F80930C020E94763C79
:107C6000853409F415C18091080290910902892B8D
:107C700089F000E010E00E94763CF801E85FFE4FDA
:107C800080830F5F1F4F80910802909109020817AF
:107C9000190788F30E94763C803209F045CF809125
:107CA0000C0280FF01C16091060170910701660F0F
:107CB000771F7093070160930601A0910802B091AD
:107CC00009021097C9F0E8E0F1E09B01AD014E0F09
:107CD0005F1FF999FECF32BD21BD819180BDFA9A17
:107CE000F99A2F5F3F4FE417F50799F76A0F7B1F4B
:107CF00070930701609306018091C00085FFFCCF5F
:107D0000F092C6008091C00085FFFCCFB092C60003
:107D1000E1CE83E00E94C73CDDCE82E00E94C73CFA
:107D2000D9CE0E94763C809309020E94763C8093D3
:107D300008028091060190910701880F991F909386
:107D40000701809306010E94763C853409F4A6C0A1
:107D500080910C028E7F80930C020E94763C8032D0
:107D600009F0B8CE8091C00085FFFCCFF092C6002C
:107D7000609108027091090261157105B9F140E046
:107D800050E080910C02A82FA170B82FB27011C0E2
:107D9000BB2309F45CC0E0910601F0910701319624
:107DA000F0930701E09306014F5F5F4F46175707B7
:107DB000E8F4AA2369F3F999FECF209106013091E6
:107DC000070132BD21BDF89A90B58091C00085FFB2
:107DD000FCCF9093C6002F5F3F4F30930701209355
:107DE00006014F5F5F4F4617570718F38091C00099
:107DF00085FDE5CE8091C00085FFF8CFE0CE81E023
:107E00000E94C73C67CE0E94763C803209F08CCE3F
:107E10008091C00085FFFCCFF092C6008091C00029
:107E200085FFFCCFE092C6008091C00085FFFCCFAB
:107E3000D092C6008091C00085FFFCCFC092C600E2
:107E40008091C00085FFFCCFB092C60043CEE09188
:107E50000601F091070194918091C00085FFFCCF4D
:107E60009093C6009CCF80E10E94C73C33CE0E9415
:107E7000763C0E94763C182F0E94763C112309F430
:107E800083C0113009F484C08FE00E94C73C22CE29
:107E900080910C02816080930C02E5CE80910C02EF
:107EA000816080930C0259CF809107018823880F4D
:107EB000880B8A2180930B02809106019091070123
:107EC000880F991F90930701809306018091080203
:107ED00080FF09C080910802909109020196909359
:107EE000090280930802F894F999FECF1127E091D6
:107EF0000601F0910701C8E0D1E08091080290915D
:107F00000902103091F40091570001700130D9F34B
:107F100003E000935700E89500915700017001308D
:107F2000D9F301E100935700E89509901990009169
:107F3000570001700130D9F301E000935700E89534
:107F40001395103498F011270091570001700130FB
:107F5000D9F305E000935700E895009157000170B0
:107F60000130D9F301E100935700E895329602976A
:107F700009F0C7CF103011F00296E5CF112480919F
:107F8000C00085FFB9CEBCCE8EE10E94C73CA2CD19
:0E7F900085E90E94C73C9ECDF894FFCF80008B
:00000001FF
