:020000040000FA
:100000000C945D000C941C070C94F5060C94850070
:100010000C9485000C9485000C9485000C9485004C
:100020000C9485000C9485000C9485000C9485003C
:100030000C949B070C9485000C9485000C9485000F
:100040000C94AB060C9485000C9469070C94430740
:100050000C9485000C9485000C9485000C9485000C
:100060000C9485000C9485000000000024002700FB
:100070002A0000000000250028002B0004040404CE
:100080000404040402020202020203030303030342
:10009000010204081020408001020408102001021F
:1000A00004081020000000080002010000030407FB
:1000B0000000000000000000C80711241FBECFEFA1
:1000C000D8E0DEBFCDBF12E0A0E0B1E0E0EEFCE1A1
:1000D00002C005900D92AC31B107D9F723E0ACE135
:1000E000B2E001C01D92AA33B207E1F710E0CDE5FE
:1000F000D0E004C02197FE010E94680ECC35D107E4
:10010000C9F70E944E080C946E0E0C94000090E00B
:10011000FC01EC55FF4F2491FC01E057FF4F349157
:10012000FC01E458FF4FE491EE23C9F0222339F09B
:10013000233001F1A8F4213019F1223029F1F0E047
:10014000EE0FFF1FEE58FF4FA591B4918FB7F894B3
:10015000EC91611126C030953E233C938FBF0895EA
:100160002730A9F02830C9F0243049F78091800069
:100170008F7D03C0809180008F7780938000DFCFD8
:1001800084B58F7784BDDBCF84B58F7DFBCF809125
:10019000B0008F778093B000D2CF8091B0008F7D78
:1001A000F9CF3E2BDACFCF93DF9390E0FC01E057FD
:1001B000FF4F249184589F4FFC0184918823D1F0F4
:1001C00090E0880F991FFC01E859FF4FA591B49169
:1001D000FC01EE58FF4FC591D49161110EC09FB73D
:1001E000F8948C91E22FE0958E238C932881E22362
:1001F000E8839FBFDF91CF9108958FB7F894EC917A
:10020000E22BEC938FBFF6CF8E50806480937C00FE
:1002100080917A00806480937A0080917A0086FDD4
:10022000FCCF809178009091790008953FB7F894C1
:1002300080914C0290914D02A0914E02B0914F02DC
:1002400026B5A89B05C02F3F19F00196A11DB11D31
:100250003FBFBA2FA92F982F8827BC01CD01620F6D
:10026000711D811D911D42E0660F771F881F991F28
:100270004A95D1F708952FB7F8946091480270918C
:10028000490280914A0290914B022FBF0895089530
:10029000AF92BF92CF92DF92EF92FF920F931F9394
:1002A000CF93DF936C017B018B01040F151FEB01D2
:1002B0005E01AE18BF08C017D10759F06991D60189
:1002C000ED91FC910190F081E02DC6010995892BFB
:1002D00079F7C501DF91CF911F910F91FF90EF90BA
:1002E000DF90CF90BF90AF900895FC01538D448D67
:1002F000252F30E0842F90E0821B930B541710F0D1
:10030000CF96089501970895FC01918D828D9817DD
:1003100061F0A28DAE0FBF2FB11D5D968C91928DB5
:100320009F5F9F73928F90E008958FEF9FEF0895E6
:10033000FC01918D828D981731F0828DE80FF11DAF
:10034000858D90E008958FEF9FEF08950F931F9391
:100350000E943B016093650270936602809367027E
:10036000909368028DE592E00E94980197FF1DC06E
:100370000E943B0100916502109166022091670284
:1003800030916802601B710B820B930B009161022C
:10039000109162022091630230916402601771072C
:1003A00082079307F8F28FEF9FEF1F910F91089547
:1003B000FC01918D228D892F90E0805C9F4F821BE4
:1003C00091098F73992708958DE592E00E94D801D5
:1003D00021E0892B09F420E0822F089580E090E04D
:1003E000892B29F00E94E40181110C9400000895EA
:1003F000FC01A48DA80FB92FB11DA35ABF4F2C919A
:10040000848D90E001968F739927848FA689B78990
:100410002C93A089B1898C91837080648C93938D87
:10042000848D981306C00288F389E02D80818F7D2A
:1004300080830895EF92FF920F931F93CF93DF93E2
:10044000EC0181E0888F9B8D8C8D98131AC0E88910
:10045000F989808185FF15C09FB7F894EE89FF89DF
:100460006083E889F98980818370806480839FBF7D
:1004700081E090E0DF91CF911F910F91FF90EF907D
:100480000895F62E0B8D10E00F5F1F4F0F7311278D
:10049000E02E8C8D8E110CC00FB607FCFACFE889C8
:1004A000F989808185FFF5CFCE010E94F801F1CF57
:1004B000EB8DEC0FFD2FF11DE35AFF4FF0829FB73C
:1004C000F8940B8FEA89FB8980818062CFCFCF932C
:1004D000DF93EC01888D8823B9F0AA89BB89E8896C
:1004E000F9898C9185FD03C0808186FD0DC00FB612
:1004F00007FCF7CF8C9185FFF2CF808185FFEDCF90
:10050000CE010E94F801E9CFDF91CF9108950F93BA
:100510001F938FE00E940401853F914054F00E9498
:100520003B016093220270932302809324029093F4
:1005300025020E943B01009122021091230220918A
:10054000240230912502601B710B820B930B21E07A
:10055000693E73408105910508F020E0822F1F91CC
:100560000F910895CF92DF92EF92FF92CF93DF9396
:1005700082E10E940401EC016091380270E090E099
:1005800080E00E94FC0B6B017C01BE01DD0F880B3B
:10059000990B0E94FC0B23EC35E746E753E40E94DD
:1005A000550D2DE930E846EF50E40E94C20D9B0145
:1005B000AC01C701B6010E94630E61E018160CF091
:1005C00060E088E0DF91CF91FF90EF90DF90CF90D7
:1005D0000C94870060E080E10E94870060E081E188
:1005E0000C9487000F931F93CF9360E084E00E94E8
:1005F000870080911E0290911F02A0912002B0916D
:10060000210200911C0210911D02012E000C220BF0
:10061000330B081719072A073B0709F484C0909386
:100620001D0280931C02092E000CAA0BBB0B009725
:10063000A105B10509F443C0813020E49207A1056A
:10064000B10520F080E090E4A0E0B0E0BC01CD0175
:1006500024E0660F771F881F991F2A95D1F76F3FF7
:1006600071058105910509F008F453C0611548E052
:1006700074078105910508F450C0611520E27207E6
:100680008105910508F120E430E0C4E0611540E403
:10069000740781059105D8F0611520E8720781057E
:1006A000910598F120E034E0C7E06115710541E063
:1006B0008407910560F420E031E0C6E008C081E0E5
:1006C00090E0A0E0B0E0C2CF20E230E0C3E06115EE
:1006D000710544E08407910521F150E040E00E945B
:1006E000240D8091B000807F82608093B000C09321
:1006F000B10021502093B3008091B10087708093A6
:100700002602CF911F910F91089520E830E0C5E0B7
:10071000DECFC1E021E030E0E0CFC2E028E030E011
:10072000DCCF20E0DECF8091B100887F909126025F
:10073000892B8093B1001092B200E3CF0F931F93E7
:1007400090912E0380912F03891778F180912E03C9
:1007500081110AC00E94160160932A0370932B0333
:1007600080932C0390932D0390912E0380912F035F
:10077000981316C00E94160100912A0310912B03B2
:1007800020912C0330912D03601B710B820B930B76
:1007900060932A0370932B0380932C0390932D0373
:1007A00080912E038F5F80932E031F910F910895E8
:1007B000CF93DF93FC0101900020E9F73197AF015F
:1007C000481B590BBC018DE592E00E944801EC01E9
:1007D00042E050E060E771E08DE592E00E94480160
:1007E0008C0F9D1FDF91CF9108954F925F926F9272
:1007F0007F928F929F92AF92BF92CF92DF92EF92B1
:10080000FF920F931F93CF93DF9300D000D01F92DE
:10081000CDB7DEB79A83898383E791E00E94D8033E
:100820008AE829813A81829FB001839F700D11244B
:10083000072E000C880B990B0E94FC0B6093FA02A8
:100840007093FB028093FC029093FD0290912E0323
:1008500080912F03891718F50E943B0160933003A4
:1008600070933103809332039093330360912A0392
:1008700070912B0380912C0390912D0320912F03D5
:1008800030E050E040E00E94240D20933403309388
:100890003503409336035093370310922E030E9482
:1008A0003B010091300310913103209132033091CC
:1008B0003303AB01BC01401B510B620B730B8091E6
:1008C000380390913903B0E0A0E0481759076A0750
:1008D0007B0708F09CC1209134033091350340918F
:1008E000360350913703211531054105510509F4AF
:1008F0008EC160E077E883E993E00E94240DCA018D
:10090000B9010E94FA0B6093FE027093FF0280937C
:100910000003909301030E943B0100912603109174
:1009200027032091280330912903AB01BC01401B10
:10093000510B620B730B8091160390911703092ED4
:10094000000CAA0BBB0B481759076A077B0708F472
:1009500030C10E943B01609326037093270380936C
:100960002803909329034090FE025090FF0260906C
:10097000000370900103A30192016091FA0270914B
:10098000FB028091FC029091FD020E94550D4B01EB
:100990005C01A30192016091220370912303809175
:1009A0002403909125030E94550D6B017C01409218
:1009B00022035092230360922403709225038091B6
:1009C0001D03882341F0B7FAB094B7F8B094F7FA52
:1009D000F094F7F8F09430911C033D83412C512C96
:1009E000320131110EC0209106033091070340916E
:1009F000080350910903C501B4010E945B0C2B014F
:100A00003C018091180390911903A0911A03B091B1
:100A10001B0389839A83AB83BC8320910E0330919F
:100A20000F034091100350911103C701B6010E94BA
:100A30005B0C29813A814B815C810E94C20DA3012C
:100A400092010E94560D2B013C0120910A03309126
:100A50000B0340910C0350910D03C501B4010E949A
:100A60005B0C29813A814B815C810E945B0C209157
:100A700012033091130340911403509115030E9407
:100A8000560D4B015C018092120390921303A092C9
:100A90001403B09215039D819923C1F020910603A0
:100AA000309107034091080350910903C701B60133
:100AB0000E945B0CA50194010E94560D60931203E5
:100AC0007093130380931403909315030091120302
:100AD00010911303A0911403AD83B0911503B98352
:100AE00060911E0370911F03072E000C880B990B59
:100AF0000E94FC0B6B017C019B01AC01B8018D8154
:100B000099810E94F50B4601570187FD18C060913D
:100B1000200370912103072E000C880B990B0E9473
:100B2000FC0B4B015C019B01AC01B8018D819981EB
:100B30000E94630E18161CF04801AD80B980C401F4
:100B4000D5018093120390931303A0931403B093E1
:100B500015039401A501C301B2010E94560D4B017A
:100B60005C019B01AC01B601C7010E94630E18161F
:100B7000B4F06091200370912103072E000C880BC4
:100B8000990B0E94FC0B6B017C019B01AC01B40131
:100B9000C5010E94630E181614F064017501C601A8
:100BA000D7018093020390930303A0930403B093AF
:100BB00005032091020330910303409104035091F7
:100BC000050360E070E784E196E40E94550D0E9401
:100BD000340E60931E0270931F0280932002909344
:100BE00021020F900F900F900F900F90DF91CF91F7
:100BF0001F910F91FF90EF90DF90CF90BF90AF903B
:100C00009F908F907F906F905F904F90089520E01D
:100C100030E0A90174CE8F929F92AF92BF92CF9293
:100C2000DF92EF92FF926B017C018091550281115E
:100C300011C00E943B016C0D7D1D8E1D9F1D609398
:100C4000510270935202809353029093540281E0B8
:100C5000809355020E943B01809051029090520275
:100C6000A0905302B0905402681579058A059B053F
:100C700080F480910D01882361F08CE390E0FF9077
:100C8000EF90DF90CF90BF90AF909F908F900C949B
:100C9000F5030E943B0186169706A806B90608F0E0
:100CA00049C090E080E00E94F5030E94EA020E94A1
:100CB0003B01AB01BC018091510290915202A09185
:100CC0005302B0915402805F984DAF4FBF4F8417CD
:100CD0009507A607B70770F50E943B01C60ED71E01
:100CE000E81EF91EC0925102D0925202E0925302C5
:100CF000F092540280910D0161E0862780930D01EE
:100D00008823C1F0F09050026F256093500280E17B
:100D10000E9487006F2D81E10E9487008EE791E09D
:100D2000FF90EF90DF90CF90BF90AF909F908F900B
:100D30000C94D803FF90EF90DF90CF90BF90AF90CE
:100D40009F908F90089561E089E00E94870089E874
:100D500091E00C94D8031F920F920FB60F921124BA
:100D60002F933F938F939F93AF93BF9380914802AC
:100D700090914902A0914A02B0914B0230914702F2
:100D800023E0230F2D3758F50196A11DB11D2093A7
:100D900047028093480290934902A0934A02B0937D
:100DA0004B0280914C0290914D02A0914E02B09165
:100DB0004F020196A11DB11D80934C0290934D02EC
:100DC000A0934E02B0934F02BF91AF919F918F912C
:100DD0003F912F910F900FBE0F901F90189526E80E
:100DE000230F0296A11DB11DD2CF1F920F920FB6F5
:100DF0000F9211242F933F934F935F936F937F93A1
:100E00008F939F93AF93BF93EF93FF93E091020172
:100E1000F09103010995FF91EF91BF91AF919F91DF
:100E20008F917F916F915F914F913F912F910F9093
:100E30000FBE0F901F9018951F920F920FB60F9232
:100E400011242F933F934F935F936F937F938F93CF
:100E50009F93AF93BF93EF93FF93E0910001F091C5
:100E600001010995FF91EF91BF91AF919F918F91F2
:100E70007F916F915F914F913F912F910F900FBE96
:100E80000F901F9018951F920F920FB60F9211247A
:100E90002F933F934F935F936F937F938F939F9382
:100EA000AF93BF93EF93FF938DE592E00E94F8011B
:100EB000FF91EF91BF91AF919F918F917F916F9132
:100EC0005F914F913F912F910F900FBE0F901F9008
:100ED00018951F920F920FB60F9211242F938F9394
:100EE0009F93EF93FF93E0916D02F0916E028081EA
:100EF000E0917302F091740282FD1BC09081809199
:100F000076028F5F8F7320917702821741F0E09114
:100F10007602F0E0E35AFD4F958F80937602FF91C1
:100F2000EF919F918F912F910F900FBE0F901F9077
:100F300018958081F4CF1F920F920FB60F92112453
:100F40002F933F934F935F936F937F938F939F93D1
:100F5000AF93BF93EF93FF9361E084E00E9487001B
:100F6000E1EBF0E08081887F80831092B200FF91F6
:100F7000EF91BF91AF919F918F917F916F915F9111
:100F80004F913F912F910F900FBE0F901F9018958A
:100F9000CF93DF93EDE5F2E01382128288EE93E0C7
:100FA000A0E0B0E084839583A683B78382E691E0D6
:100FB0009183808385EC90E09587848784EC90E032
:100FC0009787868780EC90E0918B808B81EC90E016
:100FD000938B828B82EC90E0958B848B86EC90E0F7
:100FE000978B868B118E128E138E148ECAE2D3E0ED
:100FF0001C828AE08D830E943B016E837F838887F9
:1010000099871A861B861C861D8688EE93E09F872B
:101010008E87EAEFF2E0108211821282138214822C
:101020001582168217821086118612861386108EFC
:10103000118E128E138E84E690E0958F848F8DEC46
:101040009CECACECBDE3868F978FA0A3B1A312A25A
:1010500013A215A214A22FEF30E037A326A310A6E7
:1010600011A612A613A614A615A616A617A64AE937
:1010700059E969E17EE34487558766877787808BE6
:10108000918BA28BB38B8FE692E1A3E8BBE3848BB9
:10109000958BA68BB78BDF91CF910895789484B50B
:1010A000826084BD84B5816084BD85B5826085BD64
:1010B00085B5816085BD80916E00816080936E00F2
:1010C00010928100809181008260809381008091E4
:1010D0008100816080938100809180008160809395
:1010E00080008091B10084608093B1008091B00055
:1010F00081608093B00080917A00846080937A0050
:1011000080917A00826080937A0080917A00816079
:1011100080937A0080917A00806880937A001092A0
:10112000C100E0916D02F0916E0282E08083E09157
:101130006902F0916A021082E0916B02F0916C02F8
:1011400087E6808310927502E0917102F09172023D
:1011500086E08083E0916F02F0917002808180616F
:101160008083E0916F02F0917002808188608083BB
:10117000E0916F02F0917002808180688083E0913D
:101180006F02F091700280818F7D80838EE993E001
:10119000909303018093020180916900837F8860AE
:1011A00080936900E99A60E083E00E94D30082E3C3
:1011B00080932F0310922E0382EF92E0909301010F
:1011C00080930001809169008C7F81608093690029
:1011D000E89A60E082E00E94D30061E084E00E942F
:1011E000D30061E080E10E94D30061E081E10E94D0
:1011F000D3000E94EA0210921D0384E690E09093CF
:101200001F0380931E038CE195E29093210380934A
:1012100020038091700082608093700060E082E122
:101220000E94D30061E088E00E94D30060E088E083
:101230000E94870061E085E00E94D30061E086E0C3
:101240000E94D30061E087E00E94D30060E08FE05D
:101250000E94D30061E085E00E94870061E086E0A3
:101260000E94870060E087E00E94870061E089E0DB
:101270000E94D30060E08EE00E94D3000E94A3068B
:1012800083E991E00E94D80380E6A82E8AEEB82E6A
:1012900000E010E0C1E08DE592E00E94D8010297E5
:1012A0000CF4B3C08DE592E00E948401D82F0E9417
:1012B000A601FC0197FD55C08D32910521F0C09724
:1012C0000A9708F046C0C12CD12C7601712CE13070
:1012D000F105D9F0ED32F10509F440C0CF01C09716
:1012E0000A9798F4AAE0B0E0A70196010E94190DB0
:1012F0006F01FF0FEE08FF08C60ED71EE81EF91E8D
:1013000020E3C21AD108E108F1088DE592E00E94BD
:1013100084010E94A601FC01C0970A97C0F2E13047
:10132000F105A9F2772041F0F094E094D094C094B4
:10133000C11CD11CE11CF11CD337B9F0DA3709F418
:10134000E2C0D23609F061C0109239028CEB91E014
:101350005AC08DE592E00E948401A9CF772473944E
:10136000D4CFC12CD12C7601E7CF8DE991E00E943A
:10137000D803C0933A0238E0C39EF0011124E25F23
:10138000FE4F848195818A9D20018B9D500C9A9DF2
:10139000500C1124712C612C228140815181509379
:1013A0002E0240932D0220932F024092040150926E
:1013B00005016092060170920701909336028093B6
:1013C0003502C0933702C0933402C0932C021092AE
:1013D0002B020E943B01460E571E681E791E40924A
:1013E000300250923102609232027092330260E019
:1013F00089E00E94870086EA91E00E94D803C093AA
:10140000390281EB91E00E94D80380913F02811163
:101410000CC00E943B0160933B0270933C0280939E
:101420003D0290933E02C0933F0280913A0288238E
:1014300009F45DC00E943B01C0903B02D0903C0289
:10144000E0903D02F0903E026C197D098E099F09E3
:10145000653671058105910508F449C08EE00E944A
:101460000401853F914054F00E943B0160932702A4
:10147000709328028093290290932A020E943B01D4
:1014800020913902C0902702D0902802E0902902D2
:10149000F0902A026C197D098E099F09693E7340FC
:1014A00081059105E0F52223E1F180910C01811184
:1014B00002C0C0930C0180913702882309F495C0C3
:1014C00080913402811170C00E948702882309F440
:1014D00064C061E087E00E9487000E943B01609346
:1014E0003B0270933C0280933D0290933E020115B3
:1014F000110509F4D0CE0E94E401882309F4CBCE73
:101500000E940000C8CE86EC91E00E94D80361E002
:10151000CD2809F460E087E00E94870076CF211192
:1015200058C10E94B2021092380290E080E00E94FE
:10153000F5030E94EA020E9487028111CACF60E08F
:1015400087E00E94870082E10E940401BC01990F9C
:10155000880B990B0E94FC0B23EC35E746E753E41C
:101560000E94550D2DE930E846EF50E40E94C20D6F
:1015700020E030E040E252E40E94F50B87FFADCF5F
:101580000E94A30683E192E00E94D80380910C019F
:101590008111A3CFC0930C01A0CF60E087E00E942F
:1015A00087001092370299CF0E948702811110C0E4
:1015B000D0912B0260912C0285E00E9487006D2F54
:1015C00086E00E94870083ED91E00E94D80385CFDA
:1015D00060E085E00E94870060E086E00E9487006E
:1015E00083ED91E00E94D803DCCF80913502909189
:1015F0003602892B09F4D4C00E948702882361F146
:101600000E94B20280912D02809338020E943B0119
:10161000C0903002D0903102E0903202F09033025C
:101620006C157D058E059F05D0F480910B018823F4
:10163000B1F060E177E280E090E00E940B068091DB
:101640000A01882331F08CED91E00E94D8031092BA
:101650000A018BEF91E0B9CF10923802D7CFC09337
:101660000A0180910901882309F190E080E00E943D
:10167000F5030E94EA02C0933702109234021092DE
:10168000090110920B010E943B0160527C468B4F76
:101690009F4F609330027093310280933202909397
:1016A000330286EE91E00E94D803D3CF80910801E7
:1016B0008823C9F10E943B016C157D058E059F05AD
:1016C00038F460E375E780E090E00E940B06C1CF3C
:1016D000809135029091360282309105E1F083309D
:1016E0009105E1F0019721F4C0932C02C0932B02E5
:1016F0000E943B0160527C468B4F9F4F60933002AB
:101700007093310280933202909333021092080159
:101710008DEE91E0C8CF10922C02E8CFC0932C023E
:1017200010922B02E5CF0E943B0120EEC20E23E96E
:10173000D21E24E0E21EF11C6C157D058E059F056E
:1017400028F460E67AEE80E090E0BFCFC0930B0112
:10175000C0930901C093080180913502909136022F
:10176000019790933602809335020E943B01C0900E
:101770000401D0900501E0900601F0900701DC0122
:10178000CB018C0D9D1DAE1DBF1D8093300290932B
:101790003102A0933202B093330284EF91E083CF01
:1017A00090E080E00E94F5030E94EA02C0933702B5
:1017B000109234020E943B016054784D864F9F4F37
:1017C000609330027093310280933202909333021F
:1017D00084CE80910C01882309F47FCE84E092E0CE
:1017E0000E94D80310920C0178CE0E94370C08F4A6
:1017F00081E00895E89409C097FB3EF490958095A8
:10180000709561957F4F8F4F9F4F9923A9F0F92FC6
:1018100096E9BB279395F695879577956795B79544
:10182000F111F8CFFAF4BB0F11F460FF1BC06F5F2A
:101830007F4F8F4F9F4F16C0882311F096E911C03C
:10184000772321F09EE8872F762F05C0662371F05D
:1018500096E8862F70E060E02AF09A95660F771F71
:10186000881FDAF7880F9695879597F90895990F4D
:101870000008550FAA0BE0E8FEEF16161706E8075A
:10188000F907C0F012161306E407F50798F0621B7B
:10189000730B840B950B39F40A2661F0232B242B50
:1018A000252B21F408950A2609F4A140A6958FEF6F
:1018B000811D811D08950E946E0C0C94DF0C0E9406
:1018C000D10C38F00E94D80C20F0952311F00C9424
:1018D000C80C0C94CE0C11240C94130D0E94F00C27
:1018E00070F3959FC1F3950F50E0551F629FF00173
:1018F000729FBB27F00DB11D639FAA27F00DB11D8C
:10190000AA1F649F6627B00DA11D661F829F222714
:10191000B00DA11D621F739FB00DA11D621F839F9B
:10192000A00D611D221F749F3327A00D611D231F71
:10193000849F600D211D822F762F6A2F11249F57BF
:1019400050409AF0F1F088234AF0EE0FFF1FBB1FC2
:10195000661F771F881F91505040A9F79E3F510581
:1019600080F00C94C80C0C94130D5F3FE4F3983E88
:10197000D4F3869577956795B795F795E7959F5F2B
:10198000C1F7FE2B880F911D9695879597F90895BD
:1019900097F99F6780E870E060E008959FEF80EC22
:1019A000089500240A9416161706180609060895C5
:1019B00000240A9412161306140605060895092E2B
:1019C0000394000C11F4882352F0BB0F40F4BF2B9A
:1019D00011F460FF04C06F5F7F4F8F4F9F4F0895DA
:1019E00057FD9058440F551F59F05F3F71F04795D0
:1019F000880F97FB991F61F09F3F79F087950895B5
:101A0000121613061406551FF2CF4695F1DF08C0D3
:101A1000161617061806991FF1CF869571056105F0
:101A200008940895E894BB2766277727CB0197F998
:101A300008950E94460DA59F900DB49F900DA49F00
:101A4000800D911D11240895A1E21A2EAA1BBB1B23
:101A5000FD010DC0AA1FBB1FEE1FFF1FA217B3077A
:101A6000E407F50720F0A21BB30BE40BF50B661F90
:101A7000771F881F991F1A9469F760957095809554
:101A800090959B01AC01BD01CF010895A29FB001CB
:101A9000B39FC001A39F700D811D1124911DB29FA2
:101AA000700D811D1124911D08955058BB27AA2740
:101AB0000E946D0D0C94DF0C0E94D10C38F00E9436
:101AC000D80C20F039F49F3F19F426F40C94CE0C76
:101AD0000EF4E095E7FB0C94C80CE92F0E94F00C83
:101AE00058F3BA17620773078407950720F079F453
:101AF000A6F50C94120D0EF4E0950B2EBA2FA02D26
:101B00000B01B90190010C01CA01A0011124FF27AA
:101B1000591B99F0593F50F4503E68F11A16F040A5
:101B2000A22F232F342F4427585FF3CF46953795A4
:101B30002795A795F0405395C9F77EF41F16BA0B69
:101B4000620B730B840BBAF09150A1F0FF0FBB1F17
:101B5000661F771F881FC2F70EC0BA0F621F731F60
:101B6000841F48F4879577956795B795F7959E3FBD
:101B700008F0B0CF9395880F08F09927EE0F97954E
:101B8000879508950E94D60D0C94DF0C0E94D80C06
:101B900058F00E94D10C40F029F45F3F29F00C94DA
:101BA000C80C51110C94130D0C94CE0C0E94F00C27
:101BB00068F39923B1F3552391F3951B550BBB277C
:101BC000AA2762177307840738F09F5F5F4F220FC1
:101BD000331F441FAA1FA9F335D00E2E3AF0E0E8B8
:101BE00032D091505040E695001CCAF72BD0FE2F02
:101BF00029D0660F771F881FBB1F26173707480796
:101C0000AB07B0E809F0BB0B802DBF01FF2793584D
:101C10005F4F3AF09E3F510578F00C94C80C0C943D
:101C2000130D5F3FE4F3983ED4F38695779567955F
:101C3000B795F7959F5FC9F7880F911D9695879582
:101C400097F90895E1E0660F771F881FBB1F6217A1
:101C500073078407BA0720F0621B730B840BBA0B5F
:101C6000EE1F88F7E09508950E94F80C88F09F57C2
:101C700098F0B92F9927B751B0F0E1F0660F771FB0
:101C8000881F991F1AF0BA95C9F714C0B13091F0A6
:101C90000E94120DB1E008950C94120D672F782F59
:101CA0008827B85F39F0B93FCCF38695779567956B
:101CB000B395D9F73EF490958095709561957F4FD7
:101CC0008F4F9F4F08950E94370C08F48FEF0895AF
:101CD000EE0FFF1F0590F491E02D0994F894FFCFCB
:101CE00047014701A0BB0D000101010101012800CE
:101CF0005802140001001400FA001E0001001E002A
:101D00009001140002002800F401140001002800D2
:101D100058021400030023005E010F000200280097
:101D20005802140003004B00EE02140003004B00A5
:101D3000EE021E0002003200FA000A00010000005C
:101D400000001A02480175016702D8018401980158
:101D50000D0A006D6F746F725F776F726B0063684E
:101D6000616E67652064697200444F4F525F4F5047
:101D7000454E00656E645F736574757000737461C1
:101D800072742E2E2E00444F4F525F434C4F5345DA
:101D90000053544152545F574153480053544F50DD
:101DA0005F57415348006F75742077617465722ED8
:101DB0002E2E00646F207761746572006D6F746FF2
:101DC000725F72756E00495445525F310049544547
:101DD000525F3200495445525F3300697465725F47
:101DE000656E6400636C6F73655F646F6F725F70C4
:0C1DF0006C7A00454E445F574153480098
:107800000C94343C0C94513C0C94513C0C94513CE1
:107810000C94513C0C94513C0C94513C0C94513CB4
:107820000C94513C0C94513C0C94513C0C94513CA4
:107830000C94513C0C94513C0C94513C0C94513C94
:107840000C94513C0C94513C0C94513C0C94513C84
:107850000C94513C0C94513C0C94513C0C94513C74
:107860000C94513C0C94513C11241FBECFEFD8E036
:10787000DEBFCDBF11E0A0E0B1E0ECE9FFE702C060
:1078800005900D92A230B107D9F712E0A2E0B1E065
:1078900001C01D92AD30B107E1F70E942D3D0C945F
:1078A000CC3F0C94003C982F959595959595959582
:1078B000905D8F708A307CF0282F295A8091C0000B
:1078C00085FFFCCF9093C6008091C00085FFFCCF60
:1078D0002093C6000895282F205DF0CF982F809127
:1078E000C00085FFFCCF9093C6000895EF92FF92F1
:1078F0000F931F93EE24FF2487018091C00087FD22
:1079000017C00894E11CF11C011D111D81E4E8164B
:1079100082E4F8068FE0080780E0180770F3E09132
:107920000401F091050109958091C00087FFE9CF1E
:107930008091C6001F910F91FF90EF9008950E94D3
:10794000763C982F8091C00085FFFCCF9093C600B5
:1079500091362CF490330CF09053892F089597555D
:10796000892F08951F930E949F3C182F0E949F3CCF
:107970001295107F810F1F9108951F93182F882350
:1079800021F00E94763C1150E1F71F9108951F935A
:10799000182F0E94763C803249F0809103018F5F5E
:1079A000809303018530C1F01F9108958091C0003C
:1079B00085FFFCCF84E18093C6008091C00085FFE5
:1079C000FCCF1093C6008091C00085FFFCCF80E102
:1079D0008093C6001F910895E0910401F091050184
:1079E00009951F9108950E94763C803241F0809164
:1079F00003018F5F80930301853081F008958091AA
:107A0000C00085FFFCCF84E18093C6008091C00058
:107A100085FFFCCF80E18093C6000895E0910401CA
:107A2000F09105010995089540E951E08823A1F0FE
:107A30002D9A28EE33E0FA013197F1F721503040CA
:107A4000D1F72D9828EE33E0FA013197F1F7215064
:107A50003040D1F7815061F708953F924F925F9285
:107A60006F927F928F929F92AF92BF92CF92DF924E
:107A7000EF92FF920F931F93CF93DF93000080E16B
:107A80008093C4001092C50088E18093C10086E015
:107A90008093C2005098589A259A81E00E94143D24
:107AA00024E1F22E9EE1E92E85E9D82E0FE0C02ECA
:107AB00010E1B12EAA24A394B1E49B2EA6E58A2E50
:107AC000F2E57F2EE0E26E2E79E4572E63E5462E36
:107AD00050E5352E0E94763C8033B1F18133B9F107
:107AE000803409F46FC0813409F476C0823409F41B
:107AF00085C0853409F488C0803531F1823521F1A3
:107B0000813511F1853509F485C0863509F48DC0BC
:107B1000843609F496C0843709F403C1853709F423
:107B200072C1863709F466C0809103018F5F80932C
:107B30000301853079F6E0910401F0910501099582
:107B40000E94763C803351F60E94F33CC3CF0E94E2
:107B5000763C803249F78091C00085FFFCCFF092DF
:107B6000C6008091C00085FFFCCF9092C600809136
:107B7000C00085FFFCCF8092C6008091C00085FFC9
:107B8000FCCF7092C6008091C00085FFFCCF609250
:107B9000C6008091C00085FFFCCF5092C600809146
:107BA000C00085FFFCCF4092C6008091C00085FFD9
:107BB000FCCF3092C6008091C00085FFFCCFB09210
:107BC000C60088CF0E94763C863808F4BDCF0E945C
:107BD000763C0E94F33C7ECF0E94763C803809F4CC
:107BE0009CC0813809F40BC1823809F43CC1883942
:107BF00009F48FC080E00E94C73C6CCF84E10E94F2
:107C0000BD3C0E94F33C66CF85E00E94BD3C0E94D3
:107C1000F33C60CF0E94763C809306010E94763C44
:107C2000809307010E94F33C55CF0E94763C80333D
:107C300009F41DC183E00E94BD3C80E00E94C73C66
:107C400049CF0E94763C809309020E94763C809343
:107C5000080280910C028E7F80930C020E94763C79
:107C6000853409F415C18091080290910902892B8D
:107C700089F000E010E00E94763CF801E85FFE4FDA
:107C800080830F5F1F4F80910802909109020817AF
:107C9000190788F30E94763C803209F045CF809125
:107CA0000C0280FF01C16091060170910701660F0F
:107CB000771F7093070160930601A0910802B091AD
:107CC00009021097C9F0E8E0F1E09B01AD014E0F09
:107CD0005F1FF999FECF32BD21BD819180BDFA9A17
:107CE000F99A2F5F3F4FE417F50799F76A0F7B1F4B
:107CF00070930701609306018091C00085FFFCCF5F
:107D0000F092C6008091C00085FFFCCFB092C60003
:107D1000E1CE83E00E94C73CDDCE82E00E94C73CFA
:107D2000D9CE0E94763C809309020E94763C8093D3
:107D300008028091060190910701880F991F909386
:107D40000701809306010E94763C853409F4A6C0A1
:107D500080910C028E7F80930C020E94763C8032D0
:107D600009F0B8CE8091C00085FFFCCFF092C6002C
:107D7000609108027091090261157105B9F140E046
:107D800050E080910C02A82FA170B82FB27011C0E2
:107D9000BB2309F45CC0E0910601F0910701319624
:107DA000F0930701E09306014F5F5F4F46175707B7
:107DB000E8F4AA2369F3F999FECF209106013091E6
:107DC000070132BD21BDF89A90B58091C00085FFB2
:107DD000FCCF9093C6002F5F3F4F30930701209355
:107DE00006014F5F5F4F4617570718F38091C00099
:107DF00085FDE5CE8091C00085FFF8CFE0CE81E023
:107E00000E94C73C67CE0E94763C803209F08CCE3F
:107E10008091C00085FFFCCFF092C6008091C00029
:107E200085FFFCCFE092C6008091C00085FFFCCFAB
:107E3000D092C6008091C00085FFFCCFC092C600E2
:107E40008091C00085FFFCCFB092C60043CEE09188
:107E50000601F091070194918091C00085FFFCCF4D
:107E60009093C6009CCF80E10E94C73C33CE0E9415
:107E7000763C0E94763C182F0E94763C112309F430
:107E800083C0113009F484C08FE00E94C73C22CE29
:107E900080910C02816080930C02E5CE80910C02EF
:107EA000816080930C0259CF809107018823880F4D
:107EB000880B8A2180930B02809106019091070123
:107EC000880F991F90930701809306018091080203
:107ED00080FF09C080910802909109020196909359
:107EE000090280930802F894F999FECF1127E091D6
:107EF0000601F0910701C8E0D1E08091080290915D
:107F00000902103091F40091570001700130D9F34B
:107F100003E000935700E89500915700017001308D
:107F2000D9F301E100935700E89509901990009169
:107F3000570001700130D9F301E000935700E89534
:107F40001395103498F011270091570001700130FB
:107F5000D9F305E000935700E895009157000170B0
:107F60000130D9F301E100935700E895329602976A
:107F700009F0C7CF103011F00296E5CF112480919F
:107F8000C00085FFB9CEBCCE8EE10E94C73CA2CD19
:0E7F900085E90E94C73C9ECDF894FFCF80008B
:00000001FF
