:020000040000FA
:100000000C945D000C94E2060C94BB060C948500E5
:100010000C9485000C9485000C9485000C9485004C
:100020000C9485000C9485000C9485000C9485003C
:100030000C9461070C9485000C9485000C94850049
:100040000C9471060C9485000C942F070C940907EE
:100050000C9485000C9485000C9485000C9485000C
:100060000C9485000C9485000000000024002700FB
:100070002A0000000000250028002B0004040404CE
:100080000404040402020202020203030303030342
:10009000010204081020408001020408102001021F
:1000A00004081020000000080002010000030407FB
:1000B00000000000000000008E0711241FBECFEFDB
:1000C000D8E0DEBFCDBF11E0A0E0B1E0ECE9FBE19C
:1000D00002C005900D92AE36B107D9F722E0AEE628
:1000E000B1E001C01D92AF37B207E1F710E0CDE5F6
:1000F000D0E004C02197FE010E94C60DCC35D10787
:10010000C9F70E9414080C94CC0D0C94000090E0E8
:10011000FC01EC55FF4F2491FC01E057FF4F349157
:10012000FC01E458FF4FE491EE23C9F0222339F09B
:10013000233001F1A8F4213019F1223029F1F0E047
:10014000EE0FFF1FEE58FF4FA591B4918FB7F894B3
:10015000EC91611126C030953E233C938FBF0895EA
:100160002730A9F02830C9F0243049F78091800069
:100170008F7D03C0809180008F7780938000DFCFD8
:1001800084B58F7784BDDBCF84B58F7DFBCF809125
:10019000B0008F778093B000D2CF8091B0008F7D78
:1001A000F9CF3E2BDACFCF93DF9390E0FC01E057FD
:1001B000FF4F249184589F4FFC0184918823D1F0F4
:1001C00090E0880F991FFC01E859FF4FA591B49169
:1001D000FC01EE58FF4FC591D49161110EC09FB73D
:1001E000F8948C91E22FE0958E238C932881E22362
:1001F000E8839FBFDF91CF9108958FB7F894EC917A
:10020000E22BEC938FBFF6CF8E50806480937C00FE
:1002100080917A00806480937A0080917A0086FDD4
:10022000FCCF809178009091790008953FB7F894C1
:100230008091910190919201A0919301B0919401CC
:1002400026B5A89B05C02F3F19F00196A11DB11D31
:100250003FBFBA2FA92F982F8827BC01CD01620F6D
:10026000711D811D911D42E0660F771F881F991F28
:100270004A95D1F708952FB7F89460918D01709148
:100280008E0180918F01909190012FBF0895089564
:10029000AF92BF92CF92DF92EF92FF920F931F9394
:1002A000CF93DF936C017B018B01040F151FEB01D2
:1002B0005E01AE18BF08C017D10759F06991D60189
:1002C000ED91FC910190F081E02DC6010995892BFB
:1002D00079F7C501DF91CF911F910F91FF90EF90BA
:1002E000DF90CF90BF90AF900895FC01538D448D67
:1002F000252F30E0842F90E0821B930B541710F0D1
:10030000CF96089501970895FC01918D828D9817DD
:1003100061F0A28DAE0FBF2FB11D5D968C91928DB5
:100320009F5F9F73928F90E008958FEF9FEF0895E6
:10033000FC01918D828D981731F0828DE80FF11DAF
:10034000858D90E008958FEF9FEF08950F931F9391
:100350000E943B016093AA017093AB018093AC01B2
:100360009093AD0182EA91E00E94980197FF1DC031
:100370000E943B010091AA011091AB012091AC01B8
:100380003091AD01601B710B820B930B0091A601A4
:100390001091A7012091A8013091A9016017710760
:1003A00082079307F8F28FEF9FEF1F910F91089547
:1003B000FC01918D228D892F90E0805C9F4F821BE4
:1003C00091098F739927089582EA91E00E94D801DC
:1003D00021E0892B09F420E0822F089580E090E04D
:1003E000892B29F00E94E40181110C9400000895EA
:1003F000FC01A48DA80FB92FB11DA35ABF4F2C919A
:10040000848D90E001968F739927848FA689B78990
:100410002C93A089B1898C91837080648C93938D87
:10042000848D981306C00288F389E02D80818F7D2A
:1004300080830895EF92FF920F931F93CF93DF93E2
:10044000EC0181E0888F9B8D8C8D98131AC0E88910
:10045000F989808185FF15C09FB7F894EE89FF89DF
:100460006083E889F98980818370806480839FBF7D
:1004700081E090E0DF91CF911F910F91FF90EF907D
:100480000895F62E0B8D10E00F5F1F4F0F7311278D
:10049000E02E8C8D8E110CC00FB607FCFACFE889C8
:1004A000F989808185FFF5CFCE010E94F801F1CF57
:1004B000EB8DEC0FFD2FF11DE35AFF4FF0829FB73C
:1004C000F8940B8FEA89FB8980818062CFCFCF932C
:1004D000DF93EC01888D8823B9F0AA89BB89E8896C
:1004E000F9898C9185FD03C0808186FD0DC00FB612
:1004F00007FCF7CF8C9185FFF2CF808185FFEDCF90
:10050000CE010E94F801E9CFDF91CF9108950F93BA
:100510001F938FE00E940401853F914054F00E9498
:100520003B01609374017093750180937601909301
:1005300077010E943B010091740110917501209197
:10054000760130917701601B710B820B930B21E0D8
:10055000693E73408105910508F020E0822F1F91CC
:100560000F910895CF92DF92EF92FF92CF93DF9396
:1005700082E10E940401EC0160918A0170E090E048
:1005800080E00E945A0B6B017C01BE01DD0F880BDD
:10059000990B0E945A0B23EC35E746E753E40E947F
:1005A000B30C2DE930E846EF50E40E94200D9B018A
:1005B000AC01C701B6010E94C10D61E018160CF034
:1005C00060E088E0DF91CF91FF90EF90DF90CF90D7
:1005D0000C9487004F925F926F927F928F929F92BE
:1005E000AF92BF92CF92DF92EF92FF920F931F9341
:1005F000CF93DF9300D000D01F92CDB7DEB72AE8AB
:10060000289FB001299F700D1124072E000C880B24
:10061000990B0E945A0B60933F02709340028093A3
:100620004102909342029091730280917402891763
:1006300018F50E943B0160937502709376028093D7
:1006400077029093780260916F02709170028091AE
:100650007102909172022091740230E050E040E00B
:100660000E94820C2093790230937A0240937B029D
:1006700050937C02109273020E943B01009175021C
:10068000109176022091770230917802AB01BC0183
:10069000401B510B620B730B80917D0290917E0287
:1006A000B0E0A0E0481759076A077B0708F09CC133
:1006B0002091790230917A0240917B0250917C0224
:1006C000211531054105510509F48EC160E077E837
:1006D00083E993E00E94820CCA01B9010E94580B81
:1006E00060934302709344028093450290934602C4
:1006F0000E943B0100916B0210916C0220916D02EF
:1007000030916E02AB01BC01401B510B620B730BAD
:1007100080915B0290915C02092E000CAA0BBB0B2E
:10072000481759076A077B0708F430C10E943B014C
:1007300060936B0270936C0280936D0290936E02D3
:1007400040904302509044026090450270904602EF
:10075000A301920160913F02709140028091410299
:10076000909142020E94B30C4B015C01A3019201E3
:1007700060916702709168028091690290916A02AB
:100780000E94B30C6B017C01409267025092680298
:100790006092690270926A0280916202882341F03D
:1007A000B7FAB094B7F8B094F7FAF094F7F8F09479
:1007B000809161028D83412C512C320181110EC038
:1007C00020914B0230914C0240914D0250914E02CB
:1007D000C501B4010E94B90B2B013C0180915D025F
:1007E00090915E02A0915F02B091600289839A832A
:1007F000AB83BC8320915302309154024091550247
:1008000050915602C701B6010E94B90B29813A8165
:100810004B815C810E94200DA30192010E94B40CC7
:100820002B013C0120914F02309150024091510226
:1008300050915202C501B4010E94B90B29813A813D
:100840004B815C810E94B90B209157023091580274
:100850004091590250915A020E94B40C4B015C0124
:100860008092570290925802A0925902B0925A0276
:100870009D819923C1F020914B0230914C0240910F
:100880004D0250914E02C701B6010E94B90BA5015D
:1008900094010E94B40C60935702709358028093A5
:1008A000590290935A020091570210915802A09158
:1008B0005902AD83B0915A02B9836091630270917D
:1008C0006402072E000C880B990B0E945A0B6B01D7
:1008D0007C019B01AC01B8018D8199810E94530B71
:1008E0004601570187FD18C060916502709166024C
:1008F000072E000C880B990B0E945A0B4B015C01D0
:100900009B01AC01B8018D8199810E94C10D18161F
:100910001CF04801AD80B980C401D5018093570215
:1009200090935802A0935902B0935A029401A501E2
:10093000C301B2010E94B40C4B015C019B01AC01EC
:10094000B601C7010E94C10D1816B4F0609165028E
:1009500070916602072E000C880B990B0E945A0BAF
:100960006B017C019B01AC01B401C5010E94C10D6A
:10097000181614F064017501C601D701809347026F
:1009800090934802A0934902B0934A0220914702F3
:10099000309148024091490250914A0260E070E76C
:1009A00084E196E40E94B30C0E94920D6093700162
:1009B0007093710180937201909373010F900F9067
:1009C0000F900F900F90DF91CF911F910F91FF909B
:1009D000EF90DF90CF90BF90AF909F908F907F90DF
:1009E0006F905F904F90089520E030E0A90174CEA1
:1009F00060E080E10E94870060E081E10C94870064
:100A00008F929F92AF92BF92CF92DF92EF92FF921E
:100A10004B015C0180919A01811111C00E943B0140
:100A2000680D791D8A1D9B1D609396017093970137
:100A3000809398019093990181E080939A010E949C
:100A40003B01C0909601D0909701E0909801F09002
:100A500099016C157D058E059F0580F480910B0131
:100A6000882361F08CE390E0FF90EF90DF90CF90CF
:100A7000BF90AF909F908F900C94EA020E943B0130
:100A8000C616D706E806F906E8F590E080E00E9471
:100A9000EA020E94F8040E943B0120E1C20E27E214
:100AA000D21EE11CF11CC616D706E806F90650F561
:100AB0000E943B01860E971EA81EB91E80929601C9
:100AC00090929701A0929801B092990180910B01A8
:100AD00061E0862780930B018823A1F0F0909501B7
:100AE0006F256093950180E10E9487006F2D81E161
:100AF000FF90EF90DF90CF90BF90AF909F908F903E
:100B00000C948700FF90EF90DF90CF90BF90AF9054
:100B10009F908F9008950F931F93CF9360E084E090
:100B20000E9487008091700190917101A0917201E3
:100B3000B091730100916E0110916F01012E000CB4
:100B4000220B330B081719072A073B0709F484C047
:100B500090936F0180936E01092E000CAA0BBB0BC2
:100B60000097A105B10509F443C0813020E4920744
:100B7000A105B10520F080E090E4A0E0B0E0BC0168
:100B8000CD0124E0660F771F881F991F2A95D1F7A2
:100B90006F3F71058105910509F008F453C0611597
:100BA00048E074078105910508F450C0611520E202
:100BB00072078105910508F120E430E0C4E0611579
:100BC00040E4740781059105D8F0611520E87207AB
:100BD0008105910598F120E034E0C7E061157105C9
:100BE00041E08407910560F420E031E0C6E008C0F0
:100BF00081E090E0A0E0B0E0C2CF20E230E0C3E0CE
:100C00006115710544E08407910521F150E040E051
:100C10000E94820C8091B000807F82608093B0003F
:100C2000C093B10021502093B3008091B100877030
:100C300080937801CF911F910F91089520E830E0C3
:100C4000C5E0DECFC1E021E030E0E0CFC2E028E047
:100C500030E0DCCF20E0DECF8091B100887F909142
:100C60007801892B8093B1001092B200E3CF0F93EB
:100C70001F939091730280917402891778F180918B
:100C8000730281110AC00E94160160936F02709373
:100C9000700280937102909372029091730280911E
:100CA0007402981316C00E94160100916F021091F1
:100CB00070022091710230917202601B710B820BE5
:100CC000930B60936F027093700280937102909304
:100CD0007202809173028F5F809373021F910F9154
:100CE00008951F920F920FB60F9211242F933F93E6
:100CF0008F939F93AF93BF9380918D0190918E01BD
:100D0000A0918F01B091900130918C0123E0230FCD
:100D10002D3758F50196A11DB11D20938C018093AC
:100D20008D0190938E01A0938F01B09390018091DB
:100D3000910190919201A0919301B091940101963B
:100D4000A11DB11D8093910190939201A0939301F5
:100D5000B0939401BF91AF919F918F913F912F914B
:100D60000F900FBE0F901F90189526E8230F029644
:100D7000A11DB11DD2CF1F920F920FB60F92112459
:100D80002F933F934F935F936F937F938F939F9393
:100D9000AF93BF93EF93FF93E0910201F0910301B2
:100DA0000995FF91EF91BF91AF919F918F917F91A5
:100DB0006F915F914F913F912F910F900FBE0F90C8
:100DC0001F9018951F920F920FB60F9211242F9318
:100DD0003F934F935F936F937F938F939F93AF93C3
:100DE000BF93EF93FF93E0910001F091010109950A
:100DF000FF91EF91BF91AF919F918F917F916F91F3
:100E00005F914F913F912F910F900FBE0F901F90C8
:100E100018951F920F920FB60F9211242F933F93A4
:100E20004F935F936F937F938F939F93AF93BF93F2
:100E3000EF93FF9382EA91E00E94F801FF91EF9116
:100E4000BF91AF919F918F917F916F915F914F91E2
:100E50003F912F910F900FBE0F901F9018951F92EA
:100E60000F920FB60F9211242F938F939F93EF93AE
:100E7000FF93E091B201F091B3018081E091B8015C
:100E8000F091B90182FD1BC090818091BB018F5F01
:100E90008F732091BC01821741F0E091BB01F0E01B
:100EA000EE55FE4F958F8093BB01FF91EF919F917F
:100EB0008F912F910F900FBE0F901F9018958081EA
:100EC000F4CF1F920F920FB60F9211242F933F93DE
:100ED0004F935F936F937F938F939F93AF93BF9342
:100EE000EF93FF9361E084E00E948700E1EBF0E084
:100EF0008081887F80831092B200FF91EF91BF9133
:100F0000AF919F918F917F916F915F914F913F91A1
:100F10002F910F900FBE0F901F901895CF93DF93D6
:100F2000E2EAF1E01382128288EE93E0A0E0B0E002
:100F300084839583A683B78380E691E09183808341
:100F400085EC90E09587848784EC90E0978786878E
:100F500080EC90E0918B808B81EC90E0938B828B86
:100F600082EC90E0958B848B86EC90E0978B868B5F
:100F7000118E128E138E148ECFE6D2E01C828AE080
:100F80008D830E943B016E837F83888799871A86B1
:100F90001B861C861D8688EE93E09F878E87EFE375
:100FA000F2E010821182128213821482158216825C
:100FB00017821086118612861386108E118E128E5D
:100FC000138E84E690E0958F848F8DEC9CECACECD6
:100FD000BDE3868F978FA0A3B1A312A213A215A27F
:100FE00014A22FEF30E037A326A310A611A612A655
:100FF00013A614A615A616A617A64AE959E969E18B
:101000007EE34487558766877787808B918BA28B99
:10101000B38B8FE692E1A3E8BBE3848B958BA68B21
:10102000B78BDF91CF910895789484B5826084BDA9
:1010300084B5816084BD85B5826085BD85B58160DC
:1010400085BD80916E00816080936E00109281005A
:101050008091810082608093810080918100816015
:1010600080938100809180008160809380008091D6
:10107000B10084608093B1008091B0008160809362
:10108000B00080917A00846080937A0080917A0029
:10109000826080937A0080917A00816080937A00E8
:1010A00080917A00806880937A001092C100E0916C
:1010B000B201F091B30182E08083E091AE01F09142
:1010C000AF011082E091B001F091B1018FEC80830B
:1010D0001092BA01E091B601F091B70186E08083E9
:1010E000E091B401F091B501808180618083E0914D
:1010F000B401F091B501808188608083E091B401F2
:10110000F091B501808180688083E091B401F09115
:10111000B50180818F7D808360E082E10E94D300F1
:1011200061E088E00E94D30060E088E00E948700D0
:1011300061E085E00E94D30061E086E00E94D30078
:1011400061E087E00E94D30060E08FE00E94D3005E
:1011500061E085E00E94870061E086E00E948700F0
:1011600060E087E00E94870061E089E00E94D30090
:1011700060E08EE00E94D30061E089E00E94870079
:101180008BE895E0909301018093000180916900C4
:101190008C7F816080936900E89A60E082E00E9421
:1011A000D30061E084E00E94D30061E080E10E940E
:1011B000D30061E081E10E94D3000E94F804109204
:1011C000620284E690E090936402809363028CE173
:1011D00095E2909366028093650280917000826030
:1011E0008093700087E396E090930301809302015F
:1011F00080916900837F886080936900E99A60E04C
:1012000083E00E94D30082E3809374021092730201
:1012100090E6692E9AEE792E20E0422E20E0522EA2
:10122000C1E082EA91E00E94D80102970CF4CDC09F
:1012300082EA91E00E948401082F0E94A601FC012D
:1012400097FDFDC08D32910509F04CC0812C912C89
:1012500080E8A82E8FE3B82EC12CD12C7601D0E0E7
:1012600010E0E130F10559F1ED32F10509F447C024
:10127000EE32F10509F445C0CF01C0970A97F8F4A2
:10128000AAE0B0E0A70196010E94770C6F01FF0F62
:10129000EE08FF08C60ED71EE81EF91E20E3C21A8C
:1012A000D108E108F108DD2351F02DEC3CEC4CECC9
:1012B0005DE3C501B4010E94B90B4B015C0182EAF8
:1012C00091E00E9484010E94A601FC01C0970A9748
:1012D00040F2EE32F105B9F4DD2319F2D12F1111EC
:1012E00018C025C0C0970A9708F4B0CFEE32F105B8
:1012F00009F4ACCF82EA91E00E9484019ECF11E014
:10130000DECFD1E0DCCFE130F10509F4AACF112323
:1013100041F0F094E094D094C094C11CD11CE11C25
:10132000F11CC701B6010E945A0BDD2341F0C70131
:10133000B6010E945A0BA50194010E94B90B023616
:1013400009F481C0033709F040C00E94920D88E083
:10135000689FF0011124E45FFE4F84819581869D92
:101360006001879DD00C969DD00C1124F12CE12CAE
:101370002281408151815093800140937F012093CD
:101380008101C0920401D0920501E0920601F09221
:1013900007019093880180938701C0938901C093CE
:1013A0008601C0937E0110927D010E943B01C60E12
:1013B000D71EE81EF91EC0928201D0928301E092EE
:1013C0008401F0928501C0938B018EE00E9404019C
:1013D000853F914054F00E943B01609379017093E6
:1013E0007A0180937B0190937C010E943B010091E4
:1013F000790110917A0120917B0130917C01601B71
:10140000710B820B930B693E73408105910508F0C7
:1014100018C180918B01882309F413C1809189013F
:101420008823D9F180918601811122C00E94870210
:10143000882361F061E087E00E9487000DC060E0D2
:1014400070E0CB017CCF10928B01BFCF60E087E0D2
:101450000E948700109289014114510409F4E1CEE1
:101460000E94E401882309F4DCCE0E940000D9CE5A
:101470000E94870281110AC0D0917D0160917E0196
:1014800085E00E9487006D2F86E0D6CF60E085E082
:101490000E94870060E086E0DBCF80918701909119
:1014A0008801892B09F4BCC00E948702882301F1BE
:1014B0000E94B20280917F0180938A010E943B01C9
:1014C000C0908201D0908301E0908401F09085016A
:1014D0006C157D058E059F0570F480910A018823A7
:1014E00051F060E177E280E090E00E940005B4CF27
:1014F00010928A01E3CF809109018823E9F090E0FE
:1015000080E00E94EA020E94F804C09389011092D0
:1015100086011092090110920A010E943B0160525B
:101520007C468B4F9F4F6093820170938301809321
:1015300084019093850190CF809108018823A9F1BF
:101540000E943B016C157D058E059F0528F460E324
:1015500075E780E090E0C9CF809187019091880184
:1015600082309105D1F083309105D1F0019721F4BB
:10157000C0937E01C0937D010E943B0160527C4676
:101580008B4F9F4F609382017093830180938401FE
:1015900090938501109208015FCF10927E01EACFEF
:1015A000C0937E0110927D01E7CF0E943B0120EEA7
:1015B000C20E23E9D21E24E0E21EF11C6C157D054B
:1015C0008E059F0528F460E67AEE80E090E08DCFEE
:1015D000C0930A01C0930901C0930801809187015B
:1015E00090918801019790938801809387010E94D0
:1015F0003B010091040110910501209106013091F9
:101600000701DC01CB01800F911FA21FB31F809344
:10161000820190938301A0938401B09385011CCF34
:1016200090E080E00E94EA020E94F804C0938901E1
:10163000109286010E943B016054784D864F9F4F67
:1016400072CF0E94B20210928A0190E080E00E9464
:10165000EA020E94F8040E9487028111EBCE60E04A
:1016600087E00E94870082E10E940401BC01990F7B
:10167000880B990B0E945A0B23EC35E746E753E49D
:101680000E94B30C2DE930E846EF50E40E94200D93
:1016900020E030E040E252E40E94530B87FFDCCEB2
:1016A00061E089E0C9CE0E94950B08F481E00895BD
:1016B000E89409C097FB3EF49095809570956195EC
:1016C0007F4F8F4F9F4F9923A9F0F92F96E9BB27A2
:1016D0009395F695879577956795B795F111F8CF1E
:1016E000FAF4BB0F11F460FF1BC06F5F7F4F8F4F89
:1016F0009F4F16C0882311F096E911C0772321F07F
:101700009EE8872F762F05C0662371F096E8862F16
:1017100070E060E02AF09A95660F771F881FDAF76D
:10172000880F9695879597F90895990F0008550F9A
:10173000AA0BE0E8FEEF16161706E807F907C0F057
:1017400012161306E407F50798F0621B730B840B5F
:10175000950B39F40A2661F0232B242B252B21F439
:1017600008950A2609F4A140A6958FEF811D811DD9
:1017700008950E94CC0B0C943D0C0E942F0C38F065
:101780000E94360C20F0952311F00C94260C0C943A
:101790002C0C11240C94710C0E944E0C70F3959F2C
:1017A000C1F3950F50E0551F629FF001729FBB2758
:1017B000F00DB11D639FAA27F00DB11DAA1F649FF4
:1017C0006627B00DA11D661F829F2227B00DA11DA7
:1017D000621F739FB00DA11D621F839FA00D611D2D
:1017E000221F749F3327A00D611D231F849F600D4E
:1017F000211D822F762F6A2F11249F5750409AF077
:10180000F1F088234AF0EE0FFF1FBB1F661F771F02
:10181000881F91505040A9F79E3F510580F00C94CD
:10182000260C0C94710C5F3FE4F3983ED4F386953C
:1018300077956795B795F795E7959F5FC1F7FE2B6D
:10184000880F911D9695879597F9089597F99F6749
:1018500080E870E060E008959FEF80EC0895002438
:101860000A941616170618060906089500240A9405
:1018700012161306140605060895092E0394000C8B
:1018800011F4882352F0BB0F40F4BF2B11F460FF1A
:1018900004C06F5F7F4F8F4F9F4F089557FD905843
:1018A000440F551F59F05F3F71F04795880F97FB24
:1018B000991F61F09F3F79F08795089512161306DE
:1018C0001406551FF2CF4695F1DF08C0161617060D
:1018D0001806991FF1CF8695710561050894089542
:1018E000E894BB2766277727CB0197F908950E94D4
:1018F000A40CA59F900DB49F900DA49F800D911DE9
:1019000011240895A1E21A2EAA1BBB1BFD010DC0D4
:10191000AA1FBB1FEE1FFF1FA217B307E407F5079F
:1019200020F0A21BB30BE40BF50B661F771F881F7B
:10193000991F1A9469F760957095809590959B0111
:10194000AC01BD01CF010895A29FB001B39FC001BA
:10195000A39F700D811D1124911DB29F700D811DDB
:101960001124911D08955058BB27AA270E94CB0C23
:101970000C943D0C0E942F0C38F00E94360C20F085
:1019800039F49F3F19F426F40C942C0C0EF4E095D6
:10199000E7FB0C94260CE92F0E944E0C58F3BA1763
:1019A000620773078407950720F079F4A6F50C9475
:1019B000700C0EF4E0950B2EBA2FA02D0B01B9017F
:1019C00090010C01CA01A0011124FF27591B99F0B5
:1019D000593F50F4503E68F11A16F040A22F232FC1
:1019E000342F4427585FF3CF469537952795A79511
:1019F000F0405395C9F77EF41F16BA0B620B730BB8
:101A0000840BBAF09150A1F0FF0FBB1F661F771F28
:101A1000881FC2F70EC0BA0F621F731F841F48F4DD
:101A2000879577956795B795F7959E3F08F0B0CF66
:101A30009395880F08F09927EE0F9795879508954D
:101A40000E94340D0C943D0C0E94360C58F00E94FC
:101A50002F0C40F029F45F3F29F00C94260C511113
:101A60000C94710C0C942C0C0E944E0C68F399236E
:101A7000B1F3552391F3951B550BBB27AA2762178A
:101A80007307840738F09F5F5F4F220F331F441F97
:101A9000AA1FA9F335D00E2E3AF0E0E832D09150CB
:101AA0005040E695001CCAF72BD0FE2F29D0660FB8
:101AB000771F881FBB1F261737074807AB07B0E8FB
:101AC00009F0BB0B802DBF01FF2793585F4F3AF001
:101AD0009E3F510578F00C94260C0C94710C5F3FDE
:101AE000E4F3983ED4F3869577956795B795F79587
:101AF0009F5FC9F7880F911D9695879597F908956F
:101B0000E1E0660F771F881FBB1F6217730784070A
:101B1000BA0720F0621B730B840BBA0BEE1F88F719
:101B2000E09508950E94560C88F09F5798F0B92FC1
:101B30009927B751B0F0E1F0660F771F881F991F02
:101B40001AF0BA95C9F714C0B13091F00E94700C28
:101B5000B1E008950C94700C672F782F8827B85F38
:101B600039F0B93FCCF3869577956795B395D9F75A
:101B70003EF490958095709561957F4F8F4F9F4F64
:101B800008950E94950B08F48FEF0895EE0FFF1F44
:101B90000590F491E02D0994F894FFCF4701470197
:101BA000A0BB0D0001010101280058021400010032
:101BB0001400FA001E0001001E0090011400020033
:101BC0002800F4011400010028005802140003004A
:101BD00023005E010F0002002800580214000300D9
:101BE0004B00EE02140003004B00EE021E00020048
:101BF0003200FA000A000100000000001A02480149
:0A1C000075016702D8018401980104
:107800000C94343C0C94513C0C94513C0C94513CE1
:107810000C94513C0C94513C0C94513C0C94513CB4
:107820000C94513C0C94513C0C94513C0C94513CA4
:107830000C94513C0C94513C0C94513C0C94513C94
:107840000C94513C0C94513C0C94513C0C94513C84
:107850000C94513C0C94513C0C94513C0C94513C74
:107860000C94513C0C94513C11241FBECFEFD8E036
:10787000DEBFCDBF11E0A0E0B1E0ECE9FFE702C060
:1078800005900D92A230B107D9F712E0A2E0B1E065
:1078900001C01D92AD30B107E1F70E942D3D0C945F
:1078A000CC3F0C94003C982F959595959595959582
:1078B000905D8F708A307CF0282F295A8091C0000B
:1078C00085FFFCCF9093C6008091C00085FFFCCF60
:1078D0002093C6000895282F205DF0CF982F809127
:1078E000C00085FFFCCF9093C6000895EF92FF92F1
:1078F0000F931F93EE24FF2487018091C00087FD22
:1079000017C00894E11CF11C011D111D81E4E8164B
:1079100082E4F8068FE0080780E0180770F3E09132
:107920000401F091050109958091C00087FFE9CF1E
:107930008091C6001F910F91FF90EF9008950E94D3
:10794000763C982F8091C00085FFFCCF9093C600B5
:1079500091362CF490330CF09053892F089597555D
:10796000892F08951F930E949F3C182F0E949F3CCF
:107970001295107F810F1F9108951F93182F882350
:1079800021F00E94763C1150E1F71F9108951F935A
:10799000182F0E94763C803249F0809103018F5F5E
:1079A000809303018530C1F01F9108958091C0003C
:1079B00085FFFCCF84E18093C6008091C00085FFE5
:1079C000FCCF1093C6008091C00085FFFCCF80E102
:1079D0008093C6001F910895E0910401F091050184
:1079E00009951F9108950E94763C803241F0809164
:1079F00003018F5F80930301853081F008958091AA
:107A0000C00085FFFCCF84E18093C6008091C00058
:107A100085FFFCCF80E18093C6000895E0910401CA
:107A2000F09105010995089540E951E08823A1F0FE
:107A30002D9A28EE33E0FA013197F1F721503040CA
:107A4000D1F72D9828EE33E0FA013197F1F7215064
:107A50003040D1F7815061F708953F924F925F9285
:107A60006F927F928F929F92AF92BF92CF92DF924E
:107A7000EF92FF920F931F93CF93DF93000080E16B
:107A80008093C4001092C50088E18093C10086E015
:107A90008093C2005098589A259A81E00E94143D24
:107AA00024E1F22E9EE1E92E85E9D82E0FE0C02ECA
:107AB00010E1B12EAA24A394B1E49B2EA6E58A2E50
:107AC000F2E57F2EE0E26E2E79E4572E63E5462E36
:107AD00050E5352E0E94763C8033B1F18133B9F107
:107AE000803409F46FC0813409F476C0823409F41B
:107AF00085C0853409F488C0803531F1823521F1A3
:107B0000813511F1853509F485C0863509F48DC0BC
:107B1000843609F496C0843709F403C1853709F423
:107B200072C1863709F466C0809103018F5F80932C
:107B30000301853079F6E0910401F0910501099582
:107B40000E94763C803351F60E94F33CC3CF0E94E2
:107B5000763C803249F78091C00085FFFCCFF092DF
:107B6000C6008091C00085FFFCCF9092C600809136
:107B7000C00085FFFCCF8092C6008091C00085FFC9
:107B8000FCCF7092C6008091C00085FFFCCF609250
:107B9000C6008091C00085FFFCCF5092C600809146
:107BA000C00085FFFCCF4092C6008091C00085FFD9
:107BB000FCCF3092C6008091C00085FFFCCFB09210
:107BC000C60088CF0E94763C863808F4BDCF0E945C
:107BD000763C0E94F33C7ECF0E94763C803809F4CC
:107BE0009CC0813809F40BC1823809F43CC1883942
:107BF00009F48FC080E00E94C73C6CCF84E10E94F2
:107C0000BD3C0E94F33C66CF85E00E94BD3C0E94D3
:107C1000F33C60CF0E94763C809306010E94763C44
:107C2000809307010E94F33C55CF0E94763C80333D
:107C300009F41DC183E00E94BD3C80E00E94C73C66
:107C400049CF0E94763C809309020E94763C809343
:107C5000080280910C028E7F80930C020E94763C79
:107C6000853409F415C18091080290910902892B8D
:107C700089F000E010E00E94763CF801E85FFE4FDA
:107C800080830F5F1F4F80910802909109020817AF
:107C9000190788F30E94763C803209F045CF809125
:107CA0000C0280FF01C16091060170910701660F0F
:107CB000771F7093070160930601A0910802B091AD
:107CC00009021097C9F0E8E0F1E09B01AD014E0F09
:107CD0005F1FF999FECF32BD21BD819180BDFA9A17
:107CE000F99A2F5F3F4FE417F50799F76A0F7B1F4B
:107CF00070930701609306018091C00085FFFCCF5F
:107D0000F092C6008091C00085FFFCCFB092C60003
:107D1000E1CE83E00E94C73CDDCE82E00E94C73CFA
:107D2000D9CE0E94763C809309020E94763C8093D3
:107D300008028091060190910701880F991F909386
:107D40000701809306010E94763C853409F4A6C0A1
:107D500080910C028E7F80930C020E94763C8032D0
:107D600009F0B8CE8091C00085FFFCCFF092C6002C
:107D7000609108027091090261157105B9F140E046
:107D800050E080910C02A82FA170B82FB27011C0E2
:107D9000BB2309F45CC0E0910601F0910701319624
:107DA000F0930701E09306014F5F5F4F46175707B7
:107DB000E8F4AA2369F3F999FECF209106013091E6
:107DC000070132BD21BDF89A90B58091C00085FFB2
:107DD000FCCF9093C6002F5F3F4F30930701209355
:107DE00006014F5F5F4F4617570718F38091C00099
:107DF00085FDE5CE8091C00085FFF8CFE0CE81E023
:107E00000E94C73C67CE0E94763C803209F08CCE3F
:107E10008091C00085FFFCCFF092C6008091C00029
:107E200085FFFCCFE092C6008091C00085FFFCCFAB
:107E3000D092C6008091C00085FFFCCFC092C600E2
:107E40008091C00085FFFCCFB092C60043CEE09188
:107E50000601F091070194918091C00085FFFCCF4D
:107E60009093C6009CCF80E10E94C73C33CE0E9415
:107E7000763C0E94763C182F0E94763C112309F430
:107E800083C0113009F484C08FE00E94C73C22CE29
:107E900080910C02816080930C02E5CE80910C02EF
:107EA000816080930C0259CF809107018823880F4D
:107EB000880B8A2180930B02809106019091070123
:107EC000880F991F90930701809306018091080203
:107ED00080FF09C080910802909109020196909359
:107EE000090280930802F894F999FECF1127E091D6
:107EF0000601F0910701C8E0D1E08091080290915D
:107F00000902103091F40091570001700130D9F34B
:107F100003E000935700E89500915700017001308D
:107F2000D9F301E100935700E89509901990009169
:107F3000570001700130D9F301E000935700E89534
:107F40001395103498F011270091570001700130FB
:107F5000D9F305E000935700E895009157000170B0
:107F60000130D9F301E100935700E895329602976A
:107F700009F0C7CF103011F00296E5CF112480919F
:107F8000C00085FFB9CEBCCE8EE10E94C73CA2CD19
:0E7F900085E90E94C73C9ECDF894FFCF80008B
:00000001FF
